:020000040000FA
:100000000002040000000000A4070000A407000094
:10001000A4070000A4070000A4070000A407000034
:10002000A4070000A4070000A4070000A407000024
:10003000A4070000DC020000A4070000A4070000E1
:10004000A4070000BE030000A4070000A4070000EE
:10005000A4070000DE0300008C070000A4070000D6
:10006000A4070000A4070000A4070000A4070000E4
:10007000A4070000A4070000A4070000A4070000D4
:10008000A4070000A4070000A4070000A4070000C4
:10009000A4070000A4070000A4070000A4070000B4
:1000A000A4070000A4070000A4070000A4070000A4
:1000B000A4070000A4070000A4070000C603000076
:1000C000A4070000A4070000A4070000A407000084
:1000D000A4070000A4070000A4070000A407000074
:1000E000A4070000A4070000A4070000A407000064
:1000F000A4070000A4070000A4070000A407000054
:10010000A4070000A4070000A4070000A407000043
:10011000A4070000A4070000A4070000A407000033
:10012000A4070000A4070000A4070000A407000023
:10013000A4070000A4070000FFFFFF00FFFFFF006F
:10014000FFFFFF00FFFFFF00FFFFFF00FFFFFF00BB
:10015000FFFFFF00FFFFFF00FFFFFF00FFFFFF00AB
:10016000FFFFFF00FFFFFF00FFFFFF00FFFFFF009B
:10017000FFFFFF00FFFFFF00FFFFFF00FFFFFF008B
:10018000FFFFFF00FFFFFF00FFFFFF00FFFFFF007B
:10019000FFFFFF00FFFFFF00FFFFFF00FFFFFF006B
:1001A000FFFFFF00FFFFFF00FFFFFF00FFFFFF005B
:1001B000FFFFFF00FFFFFF00FFFFFF00FFFFFF004B
:1001C000FFFFFF00FFFFFF00FFFFFF00FFFFFF003B
:1001D000FFFFFF00FFFFFF00FFFFFF00FFFFFF002B
:1001E000FFFFFF00FFFFFF00FFFFFF00FFFFFF001B
:1001F000FFFFFF00FFFFFF00FFFFFF00FFFFFF000B
:10020000FFFFFF00FFFFFF00A4070000A40700009E
:10021000A4070000A4070000A4070000A407000032
:10022000A4070000A4070000A4070000A407000022
:10023000A4070000A4070000A4070000A407000012
:10024000A4070000A4070000A4070000A407000002
:10025000A4070000A4070000A4070000A4070000F2
:10026000A4070000A4070000A4070000A4070000E2
:10027000A4070000A4070000A4070000A4070000D2
:10028000A4070000A4070000A4070000A4070000C2
:10029000A4070000A4070000A4070000A4070000B2
:1002A000A4070000A4070000A4070000A4070000A2
:1002B000A4070000A4070000A4070000A407000092
:1002C000A4070000A4070000A4070000A407000082
:1002D000A4070000A4070000A4070000A407000072
:1002E000A4070000A4070000A4070000A407000062
:1002F000A4070000A4070000A4070000A407000052
:10030000A4070000A4070000A4070000A407000041
:10031000A4070000A4070000A4070000A407000031
:10032000A4070000A4070000A4070000A407000021
:10033000A4070000A4070000FFFFFF00FFFFFF006D
:10034000FFFFFF00FFFFFF00FFFFFF00FFFFFF00B9
:10035000FFFFFF00FFFFFF00FFFFFF00FFFFFF00A9
:10036000FFFFFF00FFFFFF00FFFFFF00FFFFFF0099
:10037000FFFFFF00FFFFFF00FFFFFF00FFFFFF0089
:10038000FFFFFF00FFFFFF00FFFFFF00FFFFFF0079
:10039000FFFFFF00FFFFFF00FFFFFF00FFFFFF0069
:1003A000FFFFFF00FFFFFF00FFFFFF00FFFFFF0059
:1003B000FFFFFF00FFFFFF00FFFFFF00FFFFFF0049
:1003C000FFFFFF00FFFFFF00FFFFFF00FFFFFF0039
:1003D000FFFFFF00FFFFFF00FFFFFF00FFFFFF0029
:1003E000FFFFFF00FFFFFF00FFFFFF00FFFFFF0019
:1003F000FFFFFF00FFFFFF00FFFFFF00FFFFFF0009
:100400004F2F22000E7F22000E0188000000000006
:10041000000020000000E000020032000001200087
:10042000200288000E00070040BD210011002000BE
:10043000810F70000100320014000700000020004E
:100440000000E00002003200000002000000000096
:100450008CD70200000000000040DA000000FE001F
:100460004440A900800820000000E00003003200A2
:1004700020002000A00188004440A80000000600E1
:100480008A1F78008B1F7800000006009101880009
:10049000800478000000EB001A003700E28444007A
:1004A00032A0B4009905BA00E284440032A0B4003E
:1004B0009906BA00E284440032A0B4000006EB00C2
:1004C000476FDE00FD07B200636CE10003003A00F5
:1004D000EBFF07000000EB000A003700606CE10052
:1004E00004003A00005DEB008B05E900FDFF3E00D3
:1004F000040037006168E100010032000086EB0073
:100500000B00070019C7BA001905BA000E04E00075
:1005100003003A000A00E000E0FF3A000000060095
:10052000FE07B2009E0188008A047800F5FF3700BC
:10053000395DBA008B05E9000C003200295DBA0074
:100540008B05E900080032000C00E00003003A00CF
:10055000E284440032A0B400F5FF370019DDBA0090
:100560008B05E900FAFF3A008904E800E1844400C1
:1005700032A0B40000000600A89D040000000000A6
:10058000449E040000000000F09E040000000000F3
:100590008C9F04000000000040A004000000000048
:1005A000F4A004000000000062A2040000000000AB
:1005B000C6A20400000000003600F800809FBE00C4
:1005C000829FBE00849FBE00869FBE000000FA008E
:1005D0008460A900604080000000E800604088005E
:1005E000918D20009140780010C0B30072CCB30010
:1005F00082CF500001003E000040EB008140E80047
:1006000081417800928D2000034978000004E000C9
:1006100004003200D968EF00D868EF00DC68EF0012
:10062000DD68EF007040800081408000E00F5000E6
:10063000E08F58002A003200204780000000E800C8
:100640002047880080B72100104078000004E000B7
:100650000800320081DB800020478000808F50003E
:1006600002003900DCA2A90009003700DCA2A800C2
:100670000700370071DB800020478000808F50002A
:1006800002003600DCA2A90001003700DCA2A800AD
:1006900081DB800070DB800080804000204780008C
:1006A000808F50000E003E00E428EF007040800074
:1006B0008140800061005000E08058007040880058
:1006C0008140880080B72100104078000004E000DD
:1006D00002003200DCA2A80001003700DCA2A90061
:1006E000C0B6210010407800E64F50000E003A00DE
:1006F00046C8BF000004E0000B0032003047800015
:100700000000E8003047880030478000E10F5000CB
:1007100005003600E628EF004668EF00541002009E
:1007200001000000E828EF001AC8BF00E94F5000A0
:100730000B003A00404780000000E8004047880076
:100740004147800080382100808F5000040036002F
:10075000B0A4200090407800A0A6200001487800B6
:100760000080FA004F03BE004F02BE004F01BE00E2
:100770004F00BE003600F900004006000000FA00FD
:1007800084E0A9000080FA0000400600801F780085
:100790000000FA0088A0A900B04080000000E80036
:1007A000B040880050088000104188000A21EF0006
:1007B0000080FA004F00780000400600809FBE00D5
:1007C000821F78000200FA008560A90030118000C5
:1007D0000040780012E8B700D968EF00C0B62100E9
:1007E000104078000004E00008003200C0B621008C
:1007F00010407800E74F500004003200C0B62100DE
:1008000010407800E94F500025013A00D8C8BF00D9
:100810000080FB00E30F500032003200E30F500075
:1008200007003C00E10F50001E003200E10F5000B5
:1008300024003C000000E0000A003200980037006D
:10084000E50F500047003200E50F50002D00350045
:10085000E60F500057003200E70F500087003200CB
:100860008F003700218120009140780080BA21005C
:1008700001487800D8C8BF000040E800D8E8B700B9
:1008800080BA21009040780050CAB30080CF500059
:1008900001003200D868EF00E068EF001368EF0055
:1008A0007F003700218120009140780090BA21001C
:1008B00001487800D8C8BF000040E800D8E8B70079
:1008C000770037002181200091407800A0BA2100F4
:1008D00001487800D8C8BF000040E800D8E8B70059
:1008E0006F0037002181200091407800B0BA2100CC
:1008F00001487800D8C8BF000040E800D8E8B70039
:10090000670037002181200091407800C0BA2100A3
:1009100001487800B0BA210010407800E1E8B70043
:10092000D8C8BF000040E800D8E8B700118E20000A
:100930009140780030C2B30080CF500002003600F2
:10094000D868EF00E068EF00E1C8BF000004E000F5
:1009500050003A00D8C8BF000040E800D8E8B7000F
:100960004F003700E0C8BF000080FB00218120005D
:100970009140780092BA2100000041004140980067
:10098000E0C8BF000040E800E0E8B700018E2000AA
:1009900091407800E1C8BF0080CF50003F003A008E
:1009A000E068EF00D8C8BF000040E800D8E8B70012
:1009B0003B003700218120009140780000BD2100DC
:1009C0000148780090BA210010407800DFE8B700B5
:1009D000A0BA210090407800DFC8BF0000C04000EE
:1009E000DFE8B700B0BA210090407800DFC8BF0050
:1009F00000C04000DFE8B700C0BA21009040780096
:100A0000DFC8BF0000C04000DFE8B7000040EB00D7
:100A1000004F7800080037001E80FB006400400093
:100A200091BA2100E1407800DFC8BF0000C040005B
:100A3000DFE8B7001E4FE800E1C8BF009E40780025
:100A400080CF5000F4FF390000BD210090407800B5
:100A5000DFC8BF0080CF5000020032001368EF00F3
:100A60000200370010C0B30013E8B700D8C8BF00B9
:100A70000040E800D8E8B7000900370021812000D5
:100A80009140780010BD210001487800D868EF003F
:100A900003003700000000000100370000000000E4
:100AA000DCC8BF000080FB00E30F500045003200AF
:100AB000E30F500007003C00E10F50001F00320020
:100AC000E10F50002E003C000000E0000A00320060
:100AD0000D013700E50F500050003200E50F5000C7
:100AE00043003500E60F500057003200E70F50007A
:100AF000600032000401370021812000914078001D
:100B000040C7B30080CF500009003A00D18D2000CB
:100B10009140780012C8BF0000C06800DDE8B7004F
:100B2000DCC8BF000040E800DCE8B7000200370086
:100B3000DD68EF00DC68EF005800370021812000FD
:100B400091407800F0C6B30080CF500009003A0011
:100B5000D18D20009140780012C8BF0000C068000D
:100B6000DDE8B700DCC8BF000040E800DCE8B70003
:100B700002003700DD68EF00DC68EF004700370057
:100B8000218120009140780000C7B30080CF500041
:100B900009003A00D18D20009140780012C8BF00B2
:100BA00000C06800DDE8B700DCC8BF000040E80016
:100BB000DCE8B70002003700DD68EF00DC68EF001A
:100BC0003600370012C8BF0068E8B700D18D20009A
:100BD0009140780012C8BF0000C06800DDE8B7008F
:100BE000DCC8BF000040E800DCE8B7002B0037009D
:100BF00012C8BF0069E8B700D18D2000914078008D
:100C000012C8BF0000C06800DDE8B700DCC8BF0044
:100C10000040E800DCE8B7002000370012C8BF0041
:100C20006AE8B700D18D20009140780012C8BF005B
:100C300000C06800DDE8B700DCC8BF000040E80085
:100C4000DCE8B7001500370012C8BF006BE8B7003A
:100C5000D18D20009140780012C8BF0000C068000C
:100C6000DDE8B700DCC8BF000040E800DCE8B70002
:100C70000A003700D18D20009140780012C8BF00D3
:100C800080CF500002003A0010C0B30066E8B70001
:100C9000DC68EF00DD68EF00000000009A0037001C
:100CA000C0B6210010407800E64F500096003A0090
:100CB00012C8BF00E24F500008003A00F8C8BF0059
:100CC0000004E00005003200A0A42000904078005D
:100CD000A0A6200001487800F868EF0012C8BF0005
:100CE000EC4F500004003A0010C0B30013E8B70006
:100CF0001268EF008580A800DCC8BF000080FB0000
:100D0000E30F500047003200E30F500007003C00A3
:100D1000E10F50001F003200E10F50002E003C0098
:100D20000000E0000A00320077003700E50F5000B5
:100D300052003200E50F500045003500E60F50002C
:100D400059003200E70F5000620032006E00370099
:100D5000218120009140780040C7B30080CF50002F
:100D600009003A00D18D20009140780012C8BF00E0
:100D700000C06800DDE8B700DCC8BF000040E80044
:100D8000DCE8B70060003700DD68EF00DC68EF00EA
:100D90005D0037002181200091407800F0C6B3004B
:100DA00080CF500009003A00D18D2000914078009A
:100DB00012C8BF0000C06800DDE8B700DCC8BF0093
:100DC0000040E800DCE8B7004F003700DD68EF00C6
:100DD000DC68EF004C003700218120009140780052
:100DE00000C7B30080CF50000B003A00D18D200027
:100DF0009140780012C8BF0000C06800DDE8B7006D
:100E0000DCC8BF000040E800DCE8B70010C0B30059
:100E100050E8B7003C003700DD68EF00DC68EF0009
:100E20003900370012C8BF0068E8B700D18D200034
:100E30009140780012C8BF0000C06800DDE8B7002C
:100E4000DCC8BF000040E800DCE8B7002E00370037
:100E500012C8BF0069E8B700D18D2000914078002A
:100E600012C8BF0000C06800DDE8B700DCC8BF00E2
:100E70000040E800DCE8B7002300370012C8BF00DC
:100E80006AE8B700D18D20009140780012C8BF00F9
:100E900000C06800DDE8B700DCC8BF000040E80023
:100EA000DCE8B7001800370012C8BF006BE8B700D5
:100EB000D18D20009140780012C8BF0000C06800AA
:100EC000DDE8B700DCC8BF000040E800DCE8B700A0
:100ED0000D003700D18D20009140780012C8BF006E
:100EE00080CF500004003A0010C0B30066E8B7009D
:100EF00010C0B30046E8B700DC68EF00DD68EF0023
:100F00005068EF00000000000080FA004F017800F8
:100F10004F00BE0000400600801F78000000FA006D
:100F20008580A900C0B6210010407800E64F50002F
:100F300002003A0010C0B30046E8B7000080FA0093
:100F40004F007800004006000040DA000000FE007C
:100F50006011B80017013700889FBE008A9FBE004D
:100F60008C1F7800420107004901330003866C00A2
:100F70006450E100240032006420E10027003200C8
:100F80006150E100220032006120E10021003200C6
:100F90008B854200EB07B1000134B800003AB8007D
:100FA0000804420089844A00013AB8000030B800C1
:100FB0008880400009014A0004003300000040001E
:100FC00081804800020149008B05E900C909DD0064
:100FD000830170000100320013002000C814DE00FD
:100FE0004814DD004709DE001200B200C808DE0028
:100FF000088470003601070001F0A1000CF0A70082
:1010000001F0A0002B0137006120E1002D0132002A
:101010000801BE000200BE00F7FF37006150E1008A
:10102000FCFF3A002701370003F0A200889FBE00B2
:101030008A9FBE008C1F78000D0107001401330049
:101040006450E1004F0032006420E10052003200A1
:1010500003826C0007003B000905D0000306D000A6
:10106000820F54000C065D000200390002003200BD
:1010700089017800030678008582550004003D0050
:101080000003FD008103FD008502EA008B8542001C
:10109000840F720002003B0060001000E080180026
:1010A0006011B8000005EB007A28E1000A00390061
:1010B00006007800C75DDD00F707B2008780750085
:1010C0002D003700828171000A01780061056000FF
:1010D0008180D1000080D3008502E900F9FF3B0048
:1010E000060440008784480002003B0060041400AE
:1010F000E0841C000988A300070032008A81710087
:1011000082817100610164008904D1000884D300E8
:101110008B05E800170037000978A30013003A0098
:101120000B00E000130034008B05E90008044400C4
:1011300089844C000A4474000978A3000D003A0029
:101140000B00E000070034008B05E90008044400B0
:1011500089844C0001003A000B0020000978A300AC
:10116000F7FF32000001EB000200370082817100BE
:101170000A017800D60007000CF0A70001F0A000DB
:10118000CC0037006420E10002003A00838F6C003D
:10119000CC0033000801BE000200BE00C5003700CD
:1011A0000001BE00F00007000470A70003F0A100DA
:1011B00003F8A30013003A006509B10010003200E3
:1011C000090035006928E10002003500010028000F
:1011D0000000050000004000818048008502E90011
:1011E000FCFF3A0000000600F88F420005003500C1
:1011F0008100D1000080D3008502E800FCFF3A00A6
:10120000000006008000EB0000000500F4FF2F0046
:10121000EA00370014002000E8003700889FBE0075
:101220008A9FBE008C1F7800910007009800330051
:1012300003866C006450E1002E0032006420E1005F
:10124000330032006150E1002F0032006120E100E4
:101250003100320085855500EB07B0000900200001
:1012600008042000050037000804440089844C006D
:101270000A0031000603430087834B00000153003E
:1012800081815B00F8FF33000203BE000800A0006C
:101290000804440089844C00F6FF3900C639DD009B
:1012A0008301730001003200130020008904D10083
:1012B0000884D3000998A300050032000800A700A5
:1012C0000300A0008904D1000884D3008B05E80046
:1012D0008904D1000884D3000001EB000281D20010
:1012E0007B00070001F0A1000CF0A70001F0A000B6
:1012F000700037006420E100720032000801BE0077
:101300000200BE00F7FF37006120E1006D003200EF
:101310006000B800F3FF37000000200001F827004C
:10132000F0FF37004F89DE0082017800BE003700F1
:101330000001BE008C0007000470A70003F0A100AC
:101340006509B100160032000D0035006828E10083
:1013500006003500F0FF2F00F1FF27000300E0003A
:1013600013003B00010028000000050000004000C1
:10137000818048008502E900FCFF3A000800370040
:10138000F88F420002003C008000EB0000000500E6
:101390008100D1000080D3008502E800FCFF3A0004
:1013A0000300E00002003B0060001000E080180035
:1013B00000000600889FBE008A9FBE000082700069
:1013C0000402710004827100260032000004BE0095
:1013D0000200BE006011B8006B09200095022000D9
:1013E0000182CF000A0039000541B1000082CF0020
:1013F000070039000541B1000982CF00040039001F
:101400000541B1000882CF00010039000541B1005B
:1014100005425200120032000A003B008281710036
:10142000610164008100D1000080D3008984D30071
:101430000884D3008B05E8000442E800F7FF3A0077
:10144000070037000804440089844C00000048006D
:10145000818048008B05E9000442E900F9FF3A0069
:101460001B0007004F05BE004F04BE000000060031
:101470000004BE003C0007000003BE000405BE00DF
:101480000200BE0038000700844F7500000006000F
:101490000200BE006450E100050036006420E10057
:1014A000020036000968A30001003A000800BE00EF
:1014B0000160A0004F0678004F05BE004F04BE003B
:1014C00000000600F0FF2F00F1FF2700F9FF3700B2
:1014D00081002000618055000B003D000B002000C2
:1014E00061FE2F000100E1001D00340082817100C7
:1014F000610164008904D1000884D3000000E80081
:10150000FAFF3A00710020006100640003007000DF
:10151000020060000900320061044400E0844C00D5
:101520000988A500050032008B05E8006808E10085
:1015300002003A008904D1000884D300F20F200091
:101540000258E10005003D00C75DDD00F907B2006B
:101550008980750008007800000006000BF827005D
:101560008B00780000000500C70ADE00F107B2001A
:10157000F50FB20008003200E1CF42000200320055
:101580000170A00024000500810F700001003200EE
:101590000408050044000500810F700002003A00B5
:1015A000140005008502E9000000400081C04800E9
:1015B000FCFF3B000170A00024000500889FBE00D6
:1015C0008A9FBE00841F7800A9FF07004F007800A3
:1015D00011003300F0FF2F00838F6C0006003B00EA
:1015E000040565000A00A7000800370009F0A600FE
:1015F0001000200008003700820F5400838F5C0029
:10160000030039001000200001003E00000020000F
:1016100009F0A7000000EA004F05BE004F04BE001D
:101620000000E00000000600881F78000304780036
:101630000300E00007003D0060001000E08018009B
:1016400060011900E081190002003B0001F02D004B
:101650000300370057FF070008F0A70001F0A000C3
:101660004F047800000006002C540000060B000018
:10167000115300002E10000013240000503400000D
:1016800046530000010B000010010000B51C0000D3
:101690006B530000050B00001049000069030000B7
:1016A000131D00006B100000322400006D49000083
:1016B000771200005107000012520000510B000089
:1016C000100F00006B1D000044530000288A00002A
:1016D000944300006D3C0000624D00006701000073
:1016E0000721000051000000011600006B320000CD
:1016F000794100006D2E00005E0600001B1B0000FB
:101700004C1200001B1000002B43000004000000DE
:10171000052D0000456F0000AC4900006D31000050
:101720005C1E00006B140000331000006700000016
:10173000075300000028000031510000B5310000BF
:10174000A15500001A020000125800006B0E0000A4
:10175000304300006B1800003B420000B52400003D
:1017600055000000B5210000645400005046000000
:10177000534300004000000011590000B52F000045
:10178000EA2D00006B1C0000373B000043110000F5
:10179000362D00001B12000027120000010000007F
:1017A0000F030000560900001258000064000000FA
:1017B0000F4F00006B2800004B4600006D520000E8
:1017C0009100000003000000122C000054060000ED
:1017D0000B110000530500000B1000001B56000009
:1017E0000A1000005450000046540000530100004D
:1017F0000B10000003560000091200001C6D0000D1
:1018000038790000212E0000000200000050000086
:101810001E56000053000000283200001251000044
:1018200008120000532800008A9400004DB5000003
:101830000C2400005A43000010320000241B00005A
:10184000083D00001BB5000026530000291D0000C4
:10185000203800000A5A00005E9A0000026D000065
:101860004876000054B400000A12000059B5000088
:10187000297D0000202900000005000052510000D1
:101880000B1000004F6B00002A4F00005542000073
:10189000021200002D430000223F00000617000046
:1018A00000120000541B000004190000132E000059
:1018B0000A13000006B40000000F00005356000099
:1018C0000B100000131B00000F2B00004F1B00002B
:1018D00017300000476B00001B4200002F4500003E
:1018E0003F65000051B40000001200002EB500005A
:1018F0002E6F000056400000000D00004C17000045
:10190000000C00004A1D00002238000053B5000002
:101910001B510000215A00006B8B000043040000A3
:10192000001100003B430000113600001654000077
:10193000060A0000125300002E0F000014350000AC
:101940001D4000009A150000140100000D24000045
:101950002D000000011A0000510A000011240000AF
:1019600050340000461A0000453A00005D53000064
:10197000010B0000101400001D250000630A000088
:10198000B51500003913000056080000121E0000B3
:101990006B15000034530000288A000094520000A8
:1019A000510B0000100200006D3A0000715300005E
:1019B000050B000010240000454900007755000089
:1019C000B5280000452D0000B5240000442D00007E
:1019D000456F0000AB4900006B0F00003717000097
:1019E000151E000004130000532E00000F14000009
:1019F000245000002F500000550100000810000086
:101A0000201D000020450000494500002955000028
:101A1000532800008991000021320000ECFE0000F4
:101A2000274500003755000008000000234400004F
:101A3000530500000B1000003E4500005DA80000AB
:101A40002029000000040000535600000B10000085
:101A500054500000465700002AB50000234F0000F4
:101A600015B5000008150000530100000B10000020
:101A7000146D000041A700004F1900000011000084
:101A8000525100000B100000434500003D62000071
:101A9000353F0000010D00002B5200000100000046
:101AA00001530000050B000010390000453A00000A
:101AB00066550000503900004B54000050460000AD
:101AC000541300005608000012120000010000002C
:101AD00012530000010B000010300000B52400007C
:101AE0004D500000B52C00008F4E0000432C00002C
:101AF00062530000288A000094540000B40B0000D8
:101B000013520000510B0000103500005600000079
:101B100012540000060C000010150000456500007E
:101B2000AE1400006B1A00005A1300002E0C0000C7
:101B3000134100006D2E00005C4E00001B1E0000D3
:101B4000411F0000431100002C5400003D02000022
:101B5000125300000025000031310000B52A0000BA
:101B600066440000540100001223000045360000C6
:101B70005A2400004547000071540000650200002F
:101B800012270000550C000012450000456A0000B5
:101B9000C44A00006D360000561D0000430F0000CF
:101BA000313700006D3900006F5500006A020000F7
:101BB00012590000B52F0000EA170000454200004E
:101BC0006E1B00004317000031320000002F0000A0
:101BD0003C290000B52C00006E190000B400000084
:101BE000125A00003F00000011430000431800009B
:101BF0003B240000522900000F1400005501000092
:101C000008100000530600000001000054500000BE
:101C1000435900005201000000010000555000002F
:101C2000364F0000532E00000F1400001445000032
:101C300038AD0000141D000024750000530500009D
:101C40000B110000371D000024500000530100005C
:101C50000B110000374500003979000053000000E7
:101C600025330000540600000B110000144600004C
:101C7000031D0000376D000039790000141E0000BC
:101C8000010E00004DB500000B2E00005128000091
:101C9000808900001356000008120000502D00003B
:101CA000545C000051000000333F00005328000046
:101CB0008A9400003F6D00004F8200001DB50000B7
:101CC0002B5000000E430000285F00000FB50000FD
:101CD00042910000525100000B1000002A01000048
:101CE000000D000021B500002F6800001AB50000AB
:101CF000295E00001F1B0000071B0000065A0000A1
:101D00005BA4000036320000A9D00000005400009F
:101D1000081300002F230000010B000010490000F1
:101D2000003300004C4A00006B2C000088110000BA
:101D3000510A000013230000560B00001049000058
:101D400029080000132A00004548000093130000F2
:101D5000050A000010460000453400006312000030
:101D6000B505000014220000510B00001006000011
:101D70001D300000524A0000B50A00003201000088
:101D8000B51F0000684E0000B5340000AC480000EC
:101D9000B51C00003C1B0000452D0000542600002F
:101DA0001D1F0000373900006B1800004143000080
:101DB000B50E0000433E00000A8B0000A424000082
:101DC000060C00001012000068010000081E000050
:101DD000B52D000065190000B5350000D0410000A8
:101DE0006B2500004E39000045480000823A000093
:101DF000455B0000EB1600006D380000653B0000FD
:101E00004324000083420000432700007F100000AD
:101E1000B5170000341E000028650000771500008B
:101E2000550A0000130D0000B5150000313B0000FD
:101E3000454A0000E85A0000050F0000125A000051
:101E4000B528000060380000B52700005A120000D5
:101E500056080000123800001D320000533A0000FE
:101E60001B17000054130000504E0000643E000099
:101E7000454A0000702A0000400000000E0B0000E0
:101E8000010C0000114600006E0500000C2C000043
:101E900011B50000081700003168000003120000AF
:101EA00015B500001C3C0000426A00000011000053
:101EB0003B4300002483000003B500000B29000011
:101EC0003E6D0000406E00003A6D000056E40000D8
:101ED000115100000812000045050000001200002A
:101EE000274300000A28000010B50000132F00004F
:101EF00016B500002E650000386D00004F7C000014
:101F0000396B0000173C000051050000070A000073
:101F1000475A00004883000031500000264300006B
:101F2000545400000811000053690000010A000029
:101F30003C6D0000477C0000325100000C11000095
:101F400046B50000336D00003E1D0000324E00001B
:101F50004E180000001000000E450000436D000008
:101F600035B50000274E0000426D00006DCC00002A
:101F700049290000101300001FB500004FAE0000FB
:101F8000086B0000274B000000B50000257B000017
:101F900031B500002F73000052050000101300003F
:101FA00047B5000055BC00001F53000000100000A2
:101FB0003A4500005DE1000039B5000024530000FF
:101FC0001DB50000327900001D4500002F540000AF
:101FD0004AB500000B320000225100000B10000037
:101FE000032B00000F1300005C500000404C000069
:101FF0002F1500005509000012230000010B0000FE
:10200000103B0000287200008B510000503A000085
:102010004B42000045650000CD3A00006D560000BF
:10202000EC23000050440000521D00000A61000033
:10203000743900006D440000813C00006D460000D2
:102040007F4E00006B1C00003F0600006D4D00003D
:102050007A510000170100000D490000291000000E
:1020600013200000B4000000111B000045320000E6
:10207000533200001D3300007F010000B51E000038
:10208000515500001B0600001C3E0000453F0000AB
:102090006E550000502F0000434A00002E10000033
:1020A000134400006B1C000041270000502E00006C
:1020B00044390000B5250000744000006D48000060
:1020C0007F5A0000510C0000114200002E06000053
:1020D000130300001804000013560000B53C000074
:1020E0009C130000010900000F3100006D49000041
:1020F000722700004530000053280000430C000008
:102100002E230000002A000033050000502C0000A0
:10211000553800006D400000723E00001D31000087
:102120004A3200006D530000C12F00006B11000007
:10213000333900003C000000044500002871000015
:102140008B3300001D32000089320000510C00006A
:1021500011100000B51900003B0100006D4900009E
:102160008F3B0000B50E0000412B0000120500005F
:102170000A10000024500000455200005454000092
:1021800008110000464500004365000012170000DA
:10219000020D0000391B00000C29000031B50000C1
:1021A0002F6F0000396D000054850000434300008C
:1021B000257D00005A500000344500003406000020
:1021C0000E11000029450000375800001A0A0000CF
:1021D000606F00003A45000062EC000016B5000098
:1021E0002F5800001AB500003263000019050000E6
:1021F000090E0000412900001013000055B5000031
:10220000328100004B530000031300005EB5000054
:1022100046B9000059B50000337B00004929000091
:102220000F13000014450000375900000E6B00002A
:102230001F3B00003A5A0000348D00005AB50000E0
:10224000235500003A2E0000111300003E45000007
:1022500046710000206D0000314E00004E45000028
:1022600037540000310000003440000015550000D4
:102270000A1200002D500000344500002A1D000005
:1022800033620000391800000313000038B5000065
:102290002C5B00000A0500000D1300000453000031
:1022A0000F1300004AB500000C360000381D000076
:1022B00035530000510300000A1000005150000087
:1022C0003B4C00002B230000560A000011230000A5
:1022D00050450000544E0000690200001105000046
:1022E000B51E000042220000050C0000115B00003A
:1022F000B525000053400000B5220000483E000014
:10230000430D000036030000010B00001121000006
:1023100029100000122200002E100000121E0000E2
:102320005033000046520000B51700002914000089
:10233000060B0000101E00006B0B00002C130000A9
:10234000010B0000103100006B0E00002D1E00007C
:102350004533000055230000530000000108000031
:10236000B51C000041220000002A0000351D0000BD
:102370006B0A00002A0E00001B120000284D00000E
:102380005006000045110000B5090000155C000072
:10239000B52F0000752500002D100000124500002B
:1023A000453800005D290000454D000075530000D0
:1023B0003C00000005270000452F000053230000CB
:1023C000B40800000F3400005A5000008A060000D4
:1023D0001B100000291A00000A630000743000007E
:1023E0006D3F00006A500000680000000F430000CD
:1023F0006B25000083150000550000001227000027
:102400001800000012320000670100000E280000D2
:10241000B52900005F58000043090000292C000086
:10242000252D00000E1400002356000009120000A4
:1024300015B50000144900001E1B00000422000016
:10244000220500000B120000225100000A110000BA
:1024500023500000445200002D6D00004364000032
:10246000130500000B110000576B0000123800002C
:10247000480000003248000052B500001629000054
:10248000552E0000111300001F5400000C13000013
:1024900023530000000E0000146800000004000038
:1024A000130100000B110000221D00002D50000040
:1024B0000504000000120000271B000005190000A1
:1024C00055060000000100004B6B00002282000056
:1024D00004B500001A5C00005DB500002853000040
:1024E0001FB500005AC70000494300002F5B0000E1
:1024F000385A0000378A0000106B00002751000096
:10250000350100000A0E0000035300000213000012
:1025100007540000071300002A46000008190000B5
:10252000220000002A350000461D00002740000060
:1025300046430000183C00002F5A00005B83000057
:102540002A430000173B0000481B0000193600001A
:10255000075300000B13000051B500000D260000CA
:10256000276B00000A29000023B40000070F0000B9
:102570001B45000035590000164000000011000006
:102580002D2300005044000052230000B407000037
:102590000F5500002E06000013220000002A000044
:1025A00035520000B5140000284F0000453E0000E1
:1025B00068260000452F0000552200002E10000064
:1025C000122300001D2700003D23000053000000DF
:1025D00001490000433200005B4500006D3A0000F5
:1025E000601E00006B0B00002C1500002D0D00007C
:1025F000133500000A640000815B00006B110000CD
:102600002F3F00001B0A0000224A0000B50C00000A
:10261000412500006B1E0000363C0000B524000080
:102620006625000014000000115A0000B5270000C4
:10263000581E00002C0C0000134800006B280000FE
:1026400049150000B51B000036180000B537000022
:102650007A2500002D10000012240000B532000081
:102660008F5D00006B190000324B00001800000065
:102670000D120000050C0000132700006B0A00007B
:10268000272C0000453F00005F0200002B0B0000DC
:10269000134F00001A00000012000000B51C0000DB
:1026A000401D00006D3C000059130000010B0000AC
:1026B00010510000B5110000274E00006902000013
:1026C0000F3F00003F000000123D00006D39000088
:1026D000625D0000B52900004E070000530C0000A9
:1026E0001314000017000000041600002356000019
:1026F0000912000025050000000100001B53000026
:1027000007140000225100000A110000251B0000E0
:102710000A250000523F00000006000024060000C9
:102720000C1100003E6B00000D400000220500006F
:102730000B12000025430000153B00005DB50000B2
:1027400025610000576B0000123800002350000084
:10275000445200001FB500005ABD0000375A000067
:10276000408300005D6B0000153200002200000075
:102770002A35000051B500000D260000476D00000D
:10278000427100004D4500003B6200001301000053
:102790000B11000041450000629500001725000064
:1027A000B52500005A2200002D0000000151000054
:1027B000670000000C23000056090000121D0000F5
:1027C000287F00008B5D0000B5250000612200001D
:1027D000510A000011220000050B00001223000026
:1027E00050440000521100006B3C00007D3D000091
:1027F000286F00008A23000053000000023E000002
:10280000431900003E1C0000690000001214000083
:102810000607000010270000430A000029490000B5
:102820001B1F00003C1F0000540C00001340000060
:102830006B180000411B0000453900005B220000BE
:10284000002A0000352B0000B5220000644C000077
:10285000287000008A0000002C0D00006D7B000035
:10286000A84D0000170300000B1E0000550F0000CC
:10287000131C0000170300000A5300005100000061
:1028800001170000505200005F1400006D76000038
:10289000995400005503000013570000550E000026
:1028A000135300000110000013530000288600009D
:1028B0008E510000180000000B13000004060000F9
:1028C0000E2400006B480000614F00005A780000A1
:1028D000884E0000060700000A4D00002B00000093
:1028E00001500000B5380000853E00006D54000026
:1028F00072520000550000000B3100001D2F000037
:102900004451000029120000133200004539000034
:102910005C5300005500000012230000453D0000FC
:10292000543C00000A590000670200005AA200004F
:10293000B42C00000110000013340000431A000002
:1029400031510000430700002356000029440000D5
:10295000511C0000B52600003B400000454200002D
:10296000622E00002B000000122C000050490000D5
:1029700059170000B5460000843F00005A7D000052
:102980008F1F000054000000124C00001D2A0000A0
:102990004824000000230000311F00001B08000035
:1029A0001A270000B5690000BD5B00006B0D000038
:1029B0002519000056010000132B000053010000F0
:1029C000101300004C170000000200005406000025
:1029D000101300000440000006110000551B000009
:1029E00008160000296D0000496400001250000024
:1029F0005663000009040000080F00002E6B000061
:102A0000132D00002C550000000900001DB400002B
:102A10000011000010010000001200000C0700006F
:102A2000BDF30000225500000E12000026430000F6
:102A3000394B000029550000000E0000140300006F
:102A4000050A000054B500002C4A00002450000084
:102A5000485600004B1D00001F3300000D0A000007
:102A6000455800001407000098DA00005355000094
:102A7000000100000EB500002E5200004C3C00008A
:102A80000004000039500000434E00004B5000008D
:102A9000404C0000250A00005F6E0000591B00003A
:102AA000132A0000155100000913000019560000F8
:102AB00004130000141D00004F6400002169000091
:102AC000030A0000304300000B2A00001E1B000018
:102AD0000A19000047500000424E00001E55000039
:102AE000101300001D3F0000040E00001DB5000083
:102AF000284A00003A0000002D3600003017000080
:102B00000511000018B500002D7B00001CB5000069
:102B1000284000002D110000690000001151000044
:102B20005300000011540000503F00004D540000BD
:102B3000540800000E4000006B2000003A540000D2
:102B400006100000133A00006A0000000F2C00007D
:102B500003000000113A000045410000641F00001E
:102B60006B0F00002A0200005AA30000B6570000B5
:102B700055010000135F0000540600000D0A00001C
:102B80006B1E00003811000007AC0000F8040000C4
:102B900068010000131F0000B5640000C835000084
:102BA0006B1A000033120000B50E00003E3E00001C
:102BB000285E0000705D0000431500003036000004
:102BC000003F00004D5400000300000011540000BD
:102BD000560000000247000054000000125400009C
:102BE000550100001333000045420000643E000020
:102BF0001E02000006580000002A000035400000B8
:102C0000B400000012530000002B000035500000FB
:102C10005500000003400000B51F000040360000D2
:102C2000294600005453000005100000135900000D
:102C3000B4030000133400006B1B0000331E0000BF
:102C4000550F00001353000001100000131700007F
:102C5000505100005E590000504100004F560000E6
:102C6000060900000D430000B51C000034390000C7
:102C7000B4020000114F00005300000011260000B4
:102C800019550000000F00005F540000060D000001
:102C90003E0000004955000039650000000F0000AB
:102CA0005E280000677B0000114100000011000059
:102CB000364300001B330000575500000A13000084
:102CC0005E3F000003130000235000003A4F000055
:102CD0000A450000345D00003B4300001E3E00003A
:102CE000581B00000C2600005DB50000316C000090
:102CF000236D00003E570000530100001013000038
:102D0000235A00007E9600001119000000110000F7
:102D100014000000112200003A1D000025410000AF
:102D2000410000002C3600001E5500000F1300006B
:102D3000366B00001B320000140700008BCE000031
:102D4000545500000813000053280000868E000030
:102D500036280000697E00003915000000070000D9
:102D6000530500001013000056000000414E000003
:102D70001550000059640000535500000008000081
:102D8000391B00001A3400005B530000090D0000DD
:102D9000584300001B44000039280000878E0000C3
:102DA00054500000404D0000502B00000012000065
:102DB0002D2500006D4400005F37000050310000F9
:102DC000434A0000B50900002E230000050C000056
:102DD000100E0000454D00006F0200006D750000F0
:102DE000E9130000433C00008A3800001D33000056
:102DF0004C3A00004330000086510000503F000074
:102E00004C1500005508000011340000B5280000E2
:102E1000640A0000050C000012150000B51A00003D
:102E200033460000B53500006A4000006B28000002
:102E3000492900006D440000632100001D210000AD
:102E400034060000B52D0000674700001D2C00006F
:102E500043230000B40800000D0600006D5200007E
:102E600076130000504C0000633A0000B50B0000E0
:102E7000334E0000431E00003A110000510A0000CA
:102E8000123100006803000010140000060B00005F
:102E900010160000432300003F08000045530000C7
:102EA000760700005026000052000000455B00003D
:102EB000813E0000454B00006D040000540E0000F0
:102EC00013030000432E00007609000003000000F9
:102ED000013900001B150000321E00001D260000F5
:102EE000393A00006D560000DE4900006B310000E9
:102EF00051340000060E000011540000530B000076
:102F000013010000431B0000472B0000B5290000FF
:102F1000591C0000B53100005E2500001555000069
:102F2000061100000E2D00000A0E00003A450000B8
:102F30005BEB0000125600000A1300004E45000033
:102F400039590000396D0000548B0000321D00001B
:102F50003586000049290000101300005950000078
:102F60002F430000424500006DD70000061D000001
:102F7000324D0000045A00007EAE0000266D0000B5
:102F800033560000106B0000254900004E6D000014
:102F90003959000021320000ECFA00004A2E0000EE
:102FA0000F130000464500003C6200003945000058
:102FB00059930000385000001D450000166B0000BA
:102FC00020420000124300004C9200000305000064
:102FD0000C12000021B500002D5900001B5A000002
:102FE000748A0000515000003F4E0000461D000052
:102FF000284300005A3F000001100000180A00009A
:1030000065760000024300002D890000410A00009F
:10301000608100003D460000050F000002540000E2
:10302000030F00003A1B00001B6000005441000029
:10303000000B00005A6B0000103000000C6B000009
:10304000224200002D3E00001D2600004E240000FC
:10305000060B000011110000680100000A130000B7
:10306000B40200000E1600001B0D00002E540000DC
:103070001B07000026510000503B00004E360000A8
:10308000453A000076130000504800006639000001
:103090006E070000174E000045350000615A000021
:1030A0002E10000013140000060900001215000085
:1030B00055060000133500001D260000464A00009A
:1030C000432200008D10000064010000063A000059
:1030D0003C020000141600006B1D000042020000BC
:1030E000540300000F460000B5330000744900008F
:1030F0002910000013480000453E00006112000046
:1031000045640000A9060000B52B0000670200001E
:10311000432B000084050000B51B00003C1100009B
:10312000510A0000133800006D5200008159000060
:103130006B0900002E550000550900000E1200001A
:103140006B4D0000941000003C01000006160000CA
:103150001D2A00004527000050310000454A0000AC
:103160002E100000130E00002D0A00000E3A000081
:103170006D510000E4520000504300005502000071
:103180001B1D00005F560000B53800007E160000D1
:10319000B52C00005B110000001B00003312000082
:1031A000560A0000131A00002B0000001225000030
:1031B000145A00007D9A000013B40000020E0000B3
:1031C00011680000010A00004E6E0000030A0000B2
:1031D0001405000000010000163C0000000600007D
:1031E00021B4000000120000492900001013000063
:1031F0000E6B0000193D00002628000065790000D4
:103200001E1D0000263F00000245000074F600006D
:103210004E6B00001A3F00001C6D00003655000088
:103220000E450000436B000049190000000D00002E
:103230003A1D00003DA40000396D000059910000C6
:1032400006B500002B6700004A2E00001013000096
:103250004E4300001B3F0000486D00003B5F000034
:103260003E280000546D0000220300000C120000F4
:10327000226D000042600000316D000044750000C6
:10328000464500003C6200003A4300002A8A0000E4
:10329000125600000A130000126B00004D9400004B
:1032A0005B6B00001C3B000016B500002C580000B2
:1032B00012670000020D000010450000436300008B
:1032C00002540000030F0000115100000A13000017
:1032D00039450000599300002C240000560E0000D0
:1032E000122300000510000013230000550E0000FB
:1032F00012330000B51A0000322300000110000054
:10330000135900006702000012530000B5110000BD
:10331000204D0000452F00004E59000055030000CD
:1033200013230000510F0000132600004539000050
:103330005433000054000000122700006D370000D5
:10334000532A0000455100008B1F0000504200002E
:10335000555300000610000013280000B52A000095
:103360005A230000540D0000135B0000B52000003C
:103370003A5600006804000011400000B51C00002F
:1033800031230000560F0000133D00002888000084
:103390008E2800005A7600008A260000B5440000FE
:1033A000911D0000050F0000125C000014000000D9
:1033B0000F1A0000B5260000552E00001B08000063
:1033C000204200005A8300009A2400002D120000C1
:1033D000135B0000432200003F0A00006D53000011
:1033E000984D0000504100004E3800005A7C00000B
:1033F000924900003F050000125C0000B524000067
:103400003F180000550D00001202000005000000EA
:10341000121D000028880000935700005300000090
:103420001207000050550000621400006D340000C7
:10343000570E00002D0B00000F2B00002351000041
:103440000E120000225100000F130000235500004F
:103450000F130000235000003D50000027550000CE
:10346000001200005E550000000500002456000018
:103470000E120000520500000F12000054B50000AB
:103480002F6100005CB50000233F0000331B0000EB
:103490001425000024060000101300004B1B000040
:1034A0000B3600004F3F0000000B000024B5000069
:1034B000295700000B670000001100002354000092
:1034C0000C1200002305000010130000011B000077
:1034D0000E2700003E280000617000005E280000FA
:1034E0006878000032430000152F00003C0A0000FD
:1034F00059670000301D00002D4800005D6B000082
:103500000324000016B500002F67000013450000DB
:103510004B77000010280000919B00003B0A000040
:1035200057670000085A00008FAB0000035A0000E4
:10353000A5B6000031430000172E0000254600000C
:10354000020800003F40000000120000386D00003B
:103550004B6E000018690000031300003F5000008C
:1035600044500000494300001E3C000056B50000D6
:10357000437E00003A430000286F00003343000000
:103580001E3700001E1D0000263D000059B500003A
:103590002D6400002B240000560E000012230000B2
:1035A000550E00001205000007A90000E7180000F2
:1035B000B4000000121F000040000000103C00009A
:1035C0005A7D0000914B00001B0C000036240000C7
:1035D00006100000131D00006B120000302B0000CD
:1035E0006B1C00003635000065000000115C000017
:1035F0002C0F0000112C0000B4000000122100006C
:1036000003000000110E00006700000012260000F9
:1036100055000000124100006E0900000F2D00004F
:1036200043170000322E0000431C00003820000029
:103630000300000010220000180000001123000009
:10364000510F000012120000030600000A360000AD
:103650000A8800009A430000503B00004C280000FC
:103660001B0C00001F3600002947000053240000F7
:103670002D12000013230000540D0000122D000035
:1036800067000000115900006702000011300000BF
:10369000B5270000505C0000B52500003F5B00002E
:1036A000B5190000373B0000410000000E5C00002F
:1036B0006B1300002F0E0000454900006853000006
:1036C000433A00005C320000170100000D2B00009F
:1036D000B5230000462900006B1600002E290000CB
:1036E0006D36000055460000431B0000361F0000E9
:1036F000245600000D1400005E500000384E0000FB
:10370000235100000D140000235400000B1400008E
:1037100024550000000100005D280000838E000099
:10372000235500000E1300005D0000002D3A00003C
:103730004C1B0000102800004C43000020410000FA
:10374000321B00000622000033B5000019360000CD
:103750000D190000001100001D0500000E120000F0
:1037600035280000849100000650000056640000D7
:10377000451400000008000057420000001200003D
:103780004C6B0000204100001D650000011300008B
:1037900005070000A4F200005A1B0000061F0000ED
:1037A0002C6D00003D640000454100000010000049
:1037B0003500000029390000375000003851000062
:1037C0005A4300000D2F0000451B00000B2600008F
:1037D00047B500004AA4000057430000092A000032
:1037E00045190000001000002C0300002C0F000001
:1037F00014220000050B00001222000028870000A0
:10380000902E0000B52D00006F230000010B00007A
:1038100010050000B51C0000405B00006B190000A3
:103820003A130000050A0000102300005044000075
:103830005206000050280000593C000043110000CF
:1038400041530000503F00004E3B00006D4A000015
:10385000EF2F00005A600000832200001E020000CB
:1038600005230000B40700000F1D0000B530000064
:1038700085340000503900004E44000045410000EE
:103880006D5C0000B5290000592F00001B0C0000E2
:1038900024230000560B0000103D0000B52400005A
:1038A0005C0D00004322000045140000550D00008F
:1038B00013230000050B0000104E0000B53400007B
:1038C000A54D00006D3500005C220000510B00008A
:1038D00010130000010A0000101200001B2300005A
:1038E0005C2B0000430F000035330000B5200000C2
:1038F0004B53000043450000730000006B140000B0
:103900003E0D000018000000053400005A5500006C
:103910008B2300006B0900002B1200000A520000EC
:10392000683E0000454B0000773400006B1000003B
:10393000355E0000286700007E120000B50500001B
:10394000145B0000B52100004E2600002205000097
:103950000B120000235600000B10000051B50000B0
:103960000D2000001B6D00003456000023010000F4
:103970000B10000056410000020A0000222800003F
:103980008790000055B40000001200001DB5000033
:10399000308400002FB5000051B300005314000024
:1039A0000206000023B40000070F000007500000CB
:1039B000265900003F5000000D4B00004B46000010
:1039C0000C220000130500000A100000230500006F
:1039D0000B10000022B5000021430000151B000061
:1039E0000B29000011B500000818000000B5000008
:1039F00022590000240600000B100000466D000054
:103A00003463000033B50000214F00002245000060
:103A1000436600003B4500004AF1000014550000D9
:103A20000D1300000D4300002245000013010000AB
:103A30000A1000005CB50000295800002251000067
:103A40000B1000004E2900003A5000002203000035
:103A50000C130000126B00003E9100005EB50000E8
:103A60003CA0000047450000356200000A4300000A
:103A7000247100005B430000133A00002B22000079
:103A8000510B000010230000050B00001022000065
:103A9000002A0000350A0000030000001224000084
:103AA0002D10000012230000560B0000100D000026
:103AB000B51400003123000050450000523D0000C5
:103AC000453A0000622500002D0F0000124D000055
:103AD0006D300000571300005A8200009814000057
:103AE000060A000010210000291000001242000008
:103AF00005010000132C00006D400000620400006E
:103B0000B51A0000454C000043200000404B000067
:103B100045690000B1010000400200000D000000F6
:103B2000B524000060330000503D00004D28000027
:103B30006D350000565B00006B1800003750000028
:103B400055010000125C0000B52C00005D2F000044
:103B50001B0C0000223500004541000062150000EA
:103B6000550A000012220000050D0000123200006C
:103B7000431400003122000003060000120300007D
:103B8000540A0000111E0000453A00005C230000AA
:103B9000B40700000F4E00006A000000121D000074
:103BA000B5320000683F000045460000662D000069
:103BB000B52200004D510000050700000B23000056
:103BC0006A00000010280000430C00002D3C00009B
:103BD0001500000012240000533F000000090000FF
:103BE00033B500001C730000235000004055000056
:103BF000220500000B120000252D00000F1300000D
:103C000014060000091100005441000000100000DB
:103C10001305000009110000335000003750000068
:103C2000235600000A1100005D2D00001013000053
:103C30001301000009110000345000003851000049
:103C4000225100000A1100005D0500000001000083
:103C5000221B00000A280000240600000B100000B0
:103C600022280000879000005D4300001439000006
:103C7000230100000B10000003B500000B2E000014
:103C8000224500004366000026450000395F000021
:103C9000220300000C13000023B40000070F0000F3
:103CA0004F6D0000375C000036B5000036C80000DC
:103CB0005B1700000011000029050000090E00003C
:103CC0005E4300000C31000033280000858F0000A7
:103CD000230500000B100000476D00003862000053
:103CE000531B00002348000036680000001200004B
:103CF0004745000038620000262300000510000040
:103D00001323000054090000125E0000550000005B
:103D100001130000504F00006043000054030000F6
:103D2000131200002E00000010110000010300001B
:103D3000122200002C1100001323000001100000CB
:103D400013520000050F0000121300001D38000080
:103D5000605200006B390000522200000400000095
:103D600008230000510F0000131200004002000061
:103D7000115B00001B1400002901000050430000EB
:103D8000541300005A730000952400000610000030
:103D900013230000550F00001347000045350000B5
:103DA0005E5C000043200000392200005501000045
:103DB00013230000560E0000135300003F000000C4
:103DC000030600001A02000012400000B51A0000AD
:103DD000311E0000560E000012570000430700007D
:103DE000294100005A7100008C3900001B0C0000B2
:103DF000240900001B1600002E2B00006D4E000051
:103E00008C1D0000510E0000120700006D470000DD
:103E100071330000432400003C580000B529000025
:103E20006C3D000043140000332F00000328000005
:103E30008A96000052500000435100002305000004
:103E4000101300002406000010130000016D000094
:103E5000588B00001D0500000A120000110100002F
:103E600005120000271D0000233700000C4500004C
:103E70003866000056410000030B000030B400001B
:103E800000120000181D0000203800005F500000E4
:103E900036460000394300001D3C00004F50000032
:103EA0002D4400001A1D00001F3700005828000094
:103EB000808900002301000010130000224500004B
:103EC0003E590000335600000C1100002350000042
:103ED000344C00000F6B000021430000520500002D
:103EE0000F12000037B500005CCF00001D5100002C
:103EF0000E120000066B0000254B000015000000AC
:103F0000242F0000036D000068C4000005000000BD
:103F1000222C0000254500003256000023540000EA
:103F20000C12000036B50000356F0000334300006E
:103F3000233C000059B50000377E0000286B0000CC
:103F4000102E00000C530000001000005B1A00004F
:103F5000041200000C1B0000132700004354000053
:103F60000913000012680000020A000017B40000E4
:103F700001020000561900000309000014B50000FA
:103F800011300000576B0000072900001E400000A0
:103F9000000D0000540000002F3B00000551000000
:103FA000061300002B230000540C0000120C00002C
:103FB000530000000E1E0000420200000F2200000D
:103FC000510F000013590000550F0000134F00005F
:103FD000502A000043060000504D00005E2C0000F7
:103FE0005308000013260000B5460000943E000070
:103FF0003F000000111800001D21000037360000AE
:104000002869000078510000288C000093500000BF
:1040100053000000125200002C1000001323000077
:10402000560F000013230000550E0000125200002E
:1040300019000000055C0000B5230000400E0000E0
:10404000510000000A5500006B0B00002623000001
:10405000503100004B470000453200005B23000058
:104060000510000013130000670200000D4100005E
:104070004565000086430000502C000046120000F9
:10408000B5060000140D00006A000000113B00009E
:104090005600000012150000550E0000120C000022
:1040A0005A8700009E580000B53000006A230000C7
:1040B00001100000134B00006A0000000F3B0000DD
:1040C0005A62000082060000B5240000465C000031
:1040D000530B000010240000453C0000564C00002B
:1040E000B5230000423600006B150000303200009E
:1040F0001802000013000000431300003C200000E1
:1041000000000000233800005456000000010000A9
:104110005E500000334E00001E5600000C140000DC
:1041200054B500002083000047B5000048A40000FB
:104130001028000089970000122800008D980000C8
:104140004D6D00002855000059B500002E74000088
:10415000175000004659000023050000101300000E
:104160000F460000030C000059680000020F000019
:1041700032180000000E0000545500000B10000023
:104180005950000033460000476B0000193F000003
:10419000036D000062B90000262D00000C10000025
:1041A00052690000010700005E5400000910000081
:1041B000110100000A13000059180000020F00004E
:1041C000471B00000C2700003B6D000040BE0000B4
:1041D000316B00001535000059400000020F00004F
:1041E000075A000088A400004C6D00003E680000E3
:1041F00032430000113600002301000010130000BC
:104200002F550000550800001111000001080000A2
:1042100013240000560B0000145E0000550000003F
:10422000015C0000432400004323000050300000E4
:1042300048120000060A000010210000550C000082
:10424000125C00003D00000003220000B4000000EA
:104250000E120000510000000D1300005028000055
:10426000535200003C0500000B13000056000000F4
:10427000022200002C110000134200005401000033
:1042800010140000690000000F220000B52B000090
:1042900059230000010F00001352000054000000D9
:1042A000043000004552000080260000503300001A
:1042B0004A330000B5190000364D0000B52B000050
:1042C0006B14000050300000531300005A630000CC
:1042D000875900005300000012220000550E000014
:1042E000131900006B06000028240000060F0000D0
:1042F00013270000B5650000EA1B00002B1000002A
:10430000134B0000455D0000A8230000540C000082
:10431000134A000045680000B12200004317000066
:10432000335A000065040000124D00002C0E0000FE
:10433000135D00005039000048340000B52500002E
:10434000525C0000B52000003D0E0000502D000022
:10435000551200005A73000092130000190000006B
:10436000070C0000B51A000044230000680200009A
:10437000135D0000B52D00006D2F00001206000037
:104380000A100000222C000011130000135A000034
:104390006287000022000000313F00005CB5000091
:1043A000203D000022B500002B59000000B50000A0
:1043B00014390000240A0000617100005855000003
:1043C0000D13000013500000285300001B2B0000A9
:1043D00010130000250000002B3C00001317000004
:1043E000010D0000240600000F1300005B1B0000FD
:1043F000152B0000536B00001B6900005C3D0000A2
:104400000003000013560000000C0000230500000C
:104410000F130000215500000C1200001251000083
:1044200000060000316D0000476B0000116B0000BA
:104430004B770000222800007F880000386D0000C4
:104440005B84000034B50000244C00000A5A0000D0
:104450006C9400001EB500002B6A0000036D000084
:104460006EDC000059B5000035AF00002354000099
:104470000C130000126D00006BB30000086B00000D
:104480002E5A000002400000051100001C530000DD
:104490000A130000011D00004A6F0000494300009C
:1044A000214C000058B500002F71000035000000BD
:1044B0002C3D00002350000030430000120000009B
:1044C0002A40000011010000090F00005A550000A9
:1044D0000E13000012500000435C0000131B00008C
:1044E0002761000056B500003EA5000026500000E0
:1044F000344F00002B230000540A00001453000026
:1045000065000000125E000055000000011C000064
:10451000452D00005C240000560B00001402000032
:1045200051030000144200006E0B00002926000019
:10453000550000000124000055000000014100006A
:104540006400000006230000550B00001436000034
:1045500053000000171600005A6800009352000034
:104560005300000002210000550B00001441000020
:104570003C00000007230000510B00001403000062
:1045800056030000145300005500000001550000C0
:10459000190000000A410000431900004C5C0000B3
:1045A0006B1B0000441700001B0800002A5300008A
:1045B00019000000121500006B0F00003E120000F1
:1045C0000609000012230000050F0000132200005E
:1045D0002C11000013020000530A00001212000008
:1045E000510000001123000050300000480400007A
:1045F000B51800003913000056000000042A00001E
:104600001900000012170000431300003A5C00007C
:104610006500000003260000B5420000AD3E00002A
:104620006B1A00004D2E000032B20000CB5C00007F
:104630004324000043230000010F0000135E00002C
:1046400050340000440C0000B51500003E0000008E
:104650002D190000287F000086530000288A0000E2
:10466000941C00002900000010530000002A0000E4
:104670003321000006080000131200001D2800006E
:10468000424900001B090000222C000050390000A4
:104690004C530000010C0000102B000067000000CC
:1046A0001222000056000000080C00002B0F000032
:1046B000120C0000530A0000124E000050160000B9
:1046C000411C0000B52F00006F07000043110000DF
:1046D00033320000B52C0000531B0000431B0000C8
:1046E0002D5A0000430F000026240000680200003D
:1046F0000F550000B5260000405400005046000051
:1047000056270000550B000012240000B5080000D9
:1047100010140000B509000016460000454B0000CB
:10472000815200005501000013530000050C0000E9
:104730001046000032B10000D82D00006D69000065
:10474000944F000050210000475400006B0B000004
:1047500027200000431800003221000032EC000046
:10476000FB3000006D3E00005E470000B5470000D2
:10477000844A0000431C00004155000050390000ED
:1047800048010000B51B000042120000B5110000F6
:104790002D5E000017040000135B0000B529000027
:1047A000602800001D2300003A2E0000454700004D
:1047B000660200002B0A0000132F000054B4000012
:1047C00008120000525100000A1000000FB500004E
:1047D000428A000012550000091200000454000033
:1047E000091100002C2D00001113000021510000C0
:1047F000001200005A18000001110000535600007A
:104800000A100000551A00000311000020010000EA
:10481000101300001CB500002D6D000053010000B6
:104820000C10000054150000041100001645000093
:104830006998000011010000001000000B1B00002F
:10484000112A0000406D0000325A00002D51000076
:1048500000120000530500000C100000385A000040
:10486000348100003F680000031300005450000032
:10487000455100002C5000003A4F0000483F000016
:10488000000F0000040600000812000053000000A2
:10489000263200005A1B0000071900004B4600009A
:1048A000020800001445000059AC0000116D000022
:1048B0002A540000241B0000364B00001D2E00006F
:1048C00000120000426D00003F6100000A1B000062
:1048D0001327000013B500000F2B000019B40000CF
:1048E000000F0000086B0000203F00002F6D00004B
:1048F0003A5800001F6D00002E4C000045B5000026
:104900000D300000324500003E5D000048170000F9
:10491000000F000013560000091300003D32000094
:10492000DCF900000C400000001100002D01000027
:104930000B1000002B530000010C0000105400006D
:10494000B408000012540000060B000010500000D4
:10495000B5300000A95B0000430F00002A5400009E
:10496000504500005153000000260000322B00008B
:10497000002D00003A240000040C00001112000079
:1049800051090000125A0000430A0000270E0000DF
:1049900019000000113700006D3C0000651B00008D
:1049A0006B1A00002F5A00006B090000265200000D
:1049B000510A0000105500006A030000111C00009D
:1049C0006D600000882D00006D6A00009D5300009E
:1049D0005044000054400000453200005A100000CE
:1049E000B5180000373E0000B52E000061480000F9
:1049F000670000000F13000056090000120B0000B2
:104A00002B050000132000001B0D000025360000C0
:104A1000B5390000822C00002D110000134B00005E
:104A20002B0D0000122C0000503900004C38000003
:104A30000A66000084530000288A000092210000CA
:104A4000B40000001218000003000000120400006F
:104A50005A7A0000AB5200001B0800001C1D000029
:104A6000010B00000E21000006110000132F0000B2
:104A700043160000363800006D3800006104000065
:104A8000431F0000534100006D390000600000002A
:104A90002B550000B527000041540000060C000013
:104AA0001054000050470000541B0000B52B0000BC
:104AB00064590000430C00002F4B00002B0D000038
:104AC000122D00006B230000411C0000454C00002B
:104AD0007F3800001D29000042530000002700001D
:104AE000315A000068010000114A00006D3B0000CF
:104AF000563500004314000034530000288A00009B
:104B000092390000B5270000644E00006B340000AD
:104B10005D500000B532000080000000540A000023
:104B200013530000050C0000102400004334000063
:104B30006A520000550D0000131500006D7600004C
:104B4000B31100006D2F0000522B00006D400000DB
:104B500059530000560B0000112200001B040000F6
:104B6000184D0000B50B00001C330000503600004B
:104B700049550000550000000E0E00006E0B0000AD
:104B80001C2A00006D3F0000581300005A7E0000F0
:104B90009213000056090000122C0000B52A0000F4
:104BA000613F0000420000001014000042000000BD
:104BB00010230000B52E00005B3900001D2200000C
:104BC00041120000550700001102000067000000BC
:104BD0001213000051070000132D00000A640000AA
:104BE000770200002E0D0000132F0000245000005B
:104BF00036490000532800008A930000125100003B
:104C0000081200005450000046550000556A00008C
:104C1000011200003F43000017440000123C000056
:104C200001060000535600000A1000005300000067
:104C3000273200004A450000335500001F450000A0
:104C400031510000114300000E3A000044540000AE
:104C500001130000231D0000223A00003A6D0000FD
:104C60003D63000054150000021200005251000084
:104C70000A1000001B6B0000132C000004540000FD
:104C80000A1200001D4500005F7D00001F6B000040
:104C90000E29000014B50000092A00005305000089
:104CA0000C10000006320000AEDF000013670000A9
:104CB000000C00003A6B0000193600004040000074
:104CC00000110000496B00000D36000054B40000D4
:104CD0000A120000530100000C1000001632000000
:104CE000B8D40000022B0000101300001543000090
:104CF000579900002C5000003D4F00001B4300005E
:104D0000142B0000364300000D3400003400000076
:104D1000303F000050B4000000110000331B0000C1
:104D20000B220000386D00003B62000030B500002F
:104D300028540000224500003D5800002D4300008B
:104D4000213A0000374300000D2F00004A6900009F
:104D50000007000056B500003DA30000015A000006
:104D600061A900002B540000060C0000100A00008E
:104D700005000000113E0000690000001153000012
:104D80006B0F00002C4400006B23000065530000F3
:104D9000030A0000111300000A56000068540000C6
:104DA000504700005412000006000000115200009D
:104DB000510B0000103800001400000011560000D4
:104DC000B53E000082400000B526000056360000C7
:104DD00068000000111B0000431200002A1A0000A6
:104DE0001D2600003F060000690000001049000079
:104DF000B527000062170000432C00005255000048
:104E00006B1F000034180000502B000040440000CD
:104E1000400000000B530000288A0000945400005A
:104E2000B4010000122E00005A5C00008124000032
:104E300050370000482D000043230000411B0000B4
:104E4000B52A000063350000431500003449000016
:104E50001B0E000024290000B400000012530000C3
:104E60000027000031070000501C000050310000F6
:104E70001D2A0000474C00005302000010480000AB
:104E8000452F0000503D000043530000893F0000C3
:104E90006B20000048040000540C000013130000B5
:104EA00056090000122200006D3A0000560E000064
:104EB0000A8300009B1C0000670100000B0000003B
:104EC0002D3A00001D3F0000A1150000030800005E
:104ED00011590000B53100008D400000B51B0000E5
:104EE000372700006D320000554A00001B1C0000EF
:104EF00057190000002E00003D210000550E000053
:104F0000135D0000010900000D230000540C000097
:104F1000135A0000550E0000131400000307000090
:104F20000F4E0000670000000B230000550D00002D
:104F3000120D00001D1800003F540000B52B0000AA
:104F40007C08000043270000505700005037000045
:104F50004812000051000000024200006B270000D0
:104F6000743F00006D4500006F3B00006D50000075
:104F7000D54600006D360000643900004551000040
:104F80007D540000540800000E1A00004537000050
:104F90005A3C0000B51900003D1100000016000049
:104FA0002A2600001B050000190200006B350000D6
:104FB000881600001D2100003E3800004607000052
:104FC000100200005A860000AA3300006D51000054
:104FD000AD510000560C0000125E0000B546000006
:104FE000C84200005A6C0000903800001D350000D7
:104FF00054540000550E0000135700006B0F0000C2
:105000002D5A0000B52900005D3A0000B50B0000E4
:1050100034130000560000000B4C00001B0D000074
:105020002716000029450000543200003A6B0000AA
:10503000318500003C450000477300003A1B00002A
:10504000205900001B450000345B00003145000082
:105050004471000050B500002C7E00002155000076
:105060000B1300003C1D00002D4C00005B000000F5
:105070002935000001050000050B00003217000073
:10508000011200005F6B00000E300000165000009F
:10509000445E0000396D00004B7B000008B5000045
:1050A000102B00000A2D0000001200002F500000FD
:1050B000304A00001C450000355D000041B500008D
:1050C0001D3D00000E6D00003F6A000050400000D2
:1050D000011000001F6B00000C2D000019050000DE
:1050E000090E00003A3C0000031300000F450000C9
:1050F0003962000005190000010F00003F45000063
:1051000042690000025A000089AF00000BB50000A0
:105110000621000011000000122800002F6B000083
:10512000123800004AB500000B3300004D43000068
:10513000173800001E1D0000223A00004143000005
:105140001D3D000021B500002E6900002B5000001D
:10515000354D00004643000021450000586700001F
:1051600002110000341D00002F4C00005BB5000050
:105170001B3C0000016B00001C48000002B5000051
:1051800006240000156D00002F57000044B50000F4
:10519000203E00004EB50000306700004145000091
:1051A0005B8800003A4300003386000014B500001D
:1051B000133800002EB50000347F000026240000C4
:1051C000453300005A440000B51F00003C3A00007F
:1051D0001B20000059300000454900007A02000001
:1051E0004100000006540000540800000E160000A4
:1051F0006D36000064390000455000008241000017
:10520000B51D00003D560000B5410000A20600009B
:10521000286400007A3900001B1300002D3A0000BA
:10522000432800007E190000550D0000133A0000CD
:10523000B50A00002C23000051000000121F0000DE
:105240006D2E0000524600006B210000454000001A
:10525000002C00003D01000028850000963E000063
:105260001D2B00004C2400006D330000590200008B
:10527000B506000022410000455D00008A050000DF
:10528000410000000D540000B52A00006A12000021
:10529000504B000063580000680100001006000039
:1052A0001D2B0000543C00006D4D00007C4A0000A6
:1052B000B50A00002D230000550000001205000073
:1052C0005A860000AA0B0000030D0000133C0000EA
:1052D0001D3000004D2F0000503600004D5B0000D7
:1052E000504200004F120000510000000D0000006D
:1052F0002C53000001100000135700005300000061
:10530000105E0000410200000D530000002E00005E
:105310003A0A0000453700005F51000055000000C8
:105320000455000055080000130300005A760000E1
:10533000A15200005500000006250000455B00005A
:1053400074180000540000001249000054030000CB
:1053500012010000B50F0000255300002882000054
:105360008C2600006E0900000E5500006B0700003F
:10537000271900006D2D00004C140000460E00009F
:105380001D59000042060000122E000055010000C9
:10539000131200005A7D000098250000433B0000D6
:1053A000531500005045000059530000B53400006B
:1053B0006D2200005400000012540000431500004C
:1053C00032220000503700004D130000650200003B
:1053D0000A520000510F00001304000040040000B6
:1053E0000E54000050370000491100000A59000017
:1053F00068130000503C0000562400001801000013
:10540000070900006D3C0000613B00000A690000D4
:10541000891900006A000000115600001B0A0000F4
:105420001B47000017000000120D0000670A000073
:1054300012270000550F0000131E0000550F00003A
:1054400013450000180300000B530000560F000026
:10545000132B0000525500000001000052510000C3
:105460000F130000101B00000B240000545000001C
:10547000394900005E410000010C000013290000C2
:105480000C1300005E400000030C000001530000FC
:10549000000B00002643000042530000535600005A
:1054A0000F1300004A45000034510000185100005D
:1054B0000113000055430000082600005FB50000FE
:1054C00068D00000150A00005B6B00001A55000050
:1054D000000B00001328000087960000303F0000FA
:1054E000031200000C4300002A46000021B5000012
:1054F00030640000065500000711000056550000FA
:105500000F1300001250000045570000482B000008
:1055100007130000376B0000152F00000D68000016
:10552000020A0000024500004064000001B50000CE
:105530000F23000003000000243600004069000033
:10554000011200003E3D000000110000332B00005E
:1055500000110000541B00000B200000182900005F
:1055600005130000275500000F130000026900001A
:1055700001070000075500000B120000594300000E
:10558000294B00001C1400000001000043B500007E
:10559000233D000013500000405A00001E5400003C
:1055A0000012000051B50000326700002B270000F8
:1055B000503300004B550000550D00001322000031
:1055C0005A7200008D4B000032E70000F7520000D5
:1055D00055000000091500000609000010550000E4
:1055E0001B070000183100001B0B00001C0200000C
:1055F0001902000009120000B51B00004240000023
:105600001B110000274D0000420100000B1B000091
:105610003F00000011580000431800003A0100004C
:1056200040000000111200001B0A0000235200007D
:10563000510F0000131B0000170000001152000062
:105640006B0D0000263800000A690000822500006A
:105650005100000012220000503800004E1A0000D5
:10566000452A0000513E0000501700003F4C00004A
:105670005A6000007D260000455800006E49000079
:105680005405000012590000B51C000031570000FD
:10569000550F000013130000002200003511000018
:1056A0005A7C0000962E00001D2800003D130000CB
:1056B000288B00009745000045900000C85000006E
:1056C00069000000112A00005A6B000081140000DC
:1056D00043410000760C0000B51800003D54000066
:1056E00050390000491200005A7E00009812000054
:1056F0006D35000059560000550F0000135500008D
:1057000040000000040000002F12000051090000BA
:10571000115300002889000090140000010E0000C1
:1057200013510000B400000010270000550C0000C9
:10573000125500004201000013210000510000003A
:105740000C240000050F000012310000B40000001E
:10575000105400005043000051020000050D0000ED
:1057600011540000060D0000102500005107000034
:105770000E1C00002B11000013520000560F0000F9
:1057800013130000560A000012000000B5250000A7
:10579000713500006B1100003A3500006D8E00007D
:1057A000DB3E00001D43000067140000B51300003D
:1057B0003813000006000000010300002C07000061
:1057C00013440000400000000B0100006B120000B9
:1057D0003C4B00000A64000076060000B520000083
:1057E0003B3F00004200000005120000550B000086
:1057F00013020000B51A00003B1A00006D420000C1
:10580000721E0000B53000007F0C00001B1100006C
:10581000271C0000454300007B1A00002E100000EA
:1058200012040000540E0000135700006B0C00001F
:10583000330D00001D4600008D4D0000B50C00002A
:105840001D2400005A6900008712000003000000B8
:1058500012200000B5200000474700001A00000099
:10586000124B0000670000000E140000001F000033
:105870003748000069000000112500002881000061
:105880008B2E0000530600000001000054B40000FD
:1058900007120000525100000C100000396900008E
:1058A00001120000135600000A120000032C000031
:1058B0000F1300001A5100000C1000003204000009
:1058C00000110000005300000C1300001B05000035
:1058D0000E1100004254000000100000466B000052
:1058E0002044000002510000081200005450000043
:1058F00046500000530000002B3500005406000005
:105900000D100000510500000B0F00002151000098
:10591000000300004D4500006CA800003642000066
:105920000011000006B50000203B000034B5000067
:10593000214500003BB50000235000001D0300007E
:10594000000A00003E3D0000000700001C2B000084
:105950001113000032B500001E4400003254000054
:105960000011000042450000457B00002954000062
:105970000012000026560000070E0000225600000C
:1059800000080000245000002F440000261D0000E5
:10599000446500000C1D00002C500000321A00006D
:1059A00000120000441B0000113E0000556B000077
:1059B000213A0000306D00003E6F000048B5000045
:1059C000296B0000045400000E1300001850000062
:1059D0002A40000014500000425F00000B4000000D
:1059E000000600002DB4000000120000444000003A
:1059F000000B0000255400002D10000012000000D4
:105A00005309000013550000680000000C1A000044
:105A1000510A0000115300002E1100001352000023
:105A20002911000013270000550B0000131100007E
:105A300001000000015300000600000001130000F7
:105A40006B15000049550000503800004A1B00004B
:105A5000560A0000111A0000050D00001254000043
:105A6000060D0000111400005A7500009853000044
:105A7000050D0000112400005A6900008B1200007F
:105A800006000000015400005041000052000000D8
:105A9000B40000000E1200005A6000008A140000DA
:105AA000B50E00004D030000560600001252000023
:105AB00001000000013500001D4C00009A19000093
:105AC000B400000012020000510600001253000052
:105AD000288700009112000051090000115A0000AF
