:020000040000FA
:100000000020040000000000A42B0000A42B00002E
:10001000A42B0000A42B0000A42B0000A42B0000A4
:10002000A42B0000A42B0000A42B0000A42B000094
:10003000A42B00002C210000A42B0000A42B000006
:10004000A42B000048210000A42B0000A42B0000DA
:10005000A42B0000802100009C210000A42B0000A4
:10006000A42B0000A42B0000A42B0000A42B000054
:10007000A42B0000A42B0000A42B0000A42B000044
:10008000A42B0000A42B0000A42B0000A42B000034
:10009000A42B0000A42B0000A42B0000A42B000024
:1000A000B8210000D4210000A42B0000A42B0000E4
:1000B000A42B0000A42B0000A42B0000642100004E
:1000C000A42B0000A42B0000A42B0000A42B0000F4
:1000D000A42B0000A42B0000A42B0000A42B0000E4
:1000E000A42B0000A42B0000A42B0000A42B0000D4
:1000F000A42B0000A42B0000A42B0000A42B0000C4
:10010000A42B0000A42B0000A42B0000A42B0000B3
:10011000A42B0000A42B0000A42B0000A42B0000A3
:10012000A42B0000A42B0000A42B0000A42B000093
:10013000A42B0000A42B0000A42B0000A42B000083
:10014000A42B0000A42B0000A42B0000A42B000073
:10015000A42B0000A42B0000A42B0000A42B000063
:10016000A42B0000A42B0000A42B0000A42B000053
:10017000A42B0000A42B0000A42B0000A42B000043
:10018000A42B0000A42B0000A42B0000A42B000033
:10019000A42B0000A42B0000A42B0000A42B000023
:1001A000A42B0000A42B0000A42B0000A42B000013
:1001B000A42B0000A42B0000A42B0000A42B000003
:1001C000A42B0000A42B0000A42B0000A42B0000F3
:1001D000A42B0000A42B0000A42B0000A42B0000E3
:1001E000A42B0000A42B0000A42B0000A42B0000D3
:1001F000A42B0000A42B0000A42B0000A42B0000C3
:10020000FFFFFF00FFFFFF00A42B0000A42B000056
:10021000A42B0000A42B0000A42B0000A42B0000A2
:10022000A42B0000A42B0000A42B0000A42B000092
:10023000A42B00002C210000A42B0000A42B000004
:10024000A42B000048210000A42B0000A42B0000D8
:10025000A42B0000802100009C210000A42B0000A2
:10026000A42B0000A42B0000A42B0000A42B000052
:10027000A42B0000A42B0000A42B0000A42B000042
:10028000A42B0000A42B0000A42B0000A42B000032
:10029000A42B0000A42B0000A42B0000A42B000022
:1002A000B8210000D4210000A42B0000A42B0000E2
:1002B000A42B0000A42B0000A42B0000642100004C
:1002C000A42B0000A42B0000A42B0000A42B0000F2
:1002D000A42B0000A42B0000A42B0000A42B0000E2
:1002E000A42B0000A42B0000A42B0000A42B0000D2
:1002F000A42B0000A42B0000A42B0000A42B0000C2
:104000008F2122000E7F22000E0188000000000098
:10401000000020000000E00002003200000120004B
:10402000200288000E000700E03225001100200069
:10403000810F700001003200140007000000200012
:104040000000E0000200320000000200000000005A
:104050007C210200010000000040DA000000FE00A8
:104060004440A900802527000000E0000300320042
:1040700010002000A00188004440A80000000600B5
:104080008A1F78008B1F78000000060091018800CD
:10409000800478000000EB001A003700E28444003E
:1040A00032A0B4009905BA00E284440032A0B40002
:1040B0009906BA00E284440032A0B4000006EB0086
:1040C000476FDE00FD07B200636CE10003003A00B9
:1040D000EBFF07000000EB000A003700606CE10016
:1040E00004003A00005DEB008B05E900FDFF3E0097
:1040F000040037006168E100010032000086EB0037
:104100000B00070019C7BA001905BA000E04E00039
:1041100003003A000A00E000E0FF3A000000060059
:10412000FE07B2009E0188008A047800F5FF370080
:10413000395DBA008B05E9000C003200295DBA0038
:104140008B05E900080032000C00E00003003A0093
:10415000E284440032A0B400F5FF370019DDBA0054
:104160008B05E900FAFF3A008904E800E184440085
:1041700032A0B40000000600BA49040000000000AC
:10418000A44A040000000000FE4A040000000000F1
:10419000BA3D040000000000BE3E04000000000024
:1041A000DC3B0400000000001A3C0400000000009A
:1041B000F43C0400000000008E47040000000000F2
:1041C000CC47040000000000A648040000000000E6
:1041D000643B0400000000001247040000000000DF
:1041E0009E3B040000000000504704000000000057
:1041F0006C490400000000008A4B0400000000002D
:104200003E3D040000000000C23F0400000000002A
:104210009C40040000000000E64004000000000094
:10422000624104000000000066420400000000003B
:104230006A43040000000000444404000000000041
:104240008E440400000000000A4504000000000045
:104250000E460400000000003600F800809FBE00FB
:10426000829FBE00849FBE00869FBE000000FA00B1
:104270005B0007000080FA004F03BE004F02BE0043
:104280004F01BE004F00BE003600F900004006009E
:104290003600F800809FBE00829FBE00849FBE0053
:1042A000869FBE000000FA00EF0007000080FA00C1
:1042B0004F03BE004F02BE004F01BE004F00BE00C4
:1042C0003600F900004006003600F800809FBE006E
:1042D000829FBE00849FBE00869FBE000000FA0041
:1042E000E50007000080FA004F03BE004F02BE0049
:1042F0004F01BE004F00BE003600F900004006002E
:104300003600F800809FBE00829FBE00849FBE00E2
:10431000869FBE000000FA00E10007000080FA005E
:104320004F03BE004F02BE004F01BE004F00BE0053
:104330003600F900004006003600F800809FBE00FD
:10434000829FBE00849FBE00869FBE000000FA00D0
:10435000CD0407000080FA004F03BE004F02BE00EC
:104360004F01BE004F00BE003600F90000400600BD
:104370003600F800809FBE00829FBE00849FBE0072
:10438000869FBE000000FA00E90407000080FA00E2
:104390004F03BE004F02BE004F01BE004F00BE00E3
:1043A0003600F900004006003600F800809FBE008D
:1043B000829FBE00849FBE00869FBE000000FA0060
:1043C000DE0407000080FA004F03BE004F02BE006B
:1043D0004F01BE004F00BE003600F900004006004D
:1043E0000000FA008460A900104080000000E8008E
:1043F00010408800B01C22009040780010C0B3002C
:1044000072CCB30082CF500001003E000040EB00B0
:104410000141E800B11C2200824878000004E0005D
:104420000C003200B01C22008040EB0001487800F4
:10443000A01C22008040EB0001487800E01C220014
:104440008040EB0001487800F01C22008040EB0027
:10445000014878002040800031408000E00F50008B
:10446000E08F580030003200C08C200010407800EF
:104470000004E0002C003200B00E81000000E800D3
:10448000B00E8900E0AD2100104078000004E0008B
:1044900008003200B1D68000B00E8100808F50003D
:1044A00002003600DCA2A90009003700DCA2A80047
:1044B00007003700A1D68000B00E8100808F500029
:1044C00002003600DCA2A90001003700DCA2A8002F
:1044D000B1D68000A0D6800080804000B00E810060
:1044E000808F5000130031000000EB00B00E8900F7
:1044F000204080003140800061005000E080580082
:104500002040880031408800E0AD21001040780054
:104510000004E00002003200DCA2A8000500370021
:10452000DCA2A90003003700C08C20008040EB0013
:104530000148780020AD210010407800E14F500084
:104540000C003A00600E81000000E800600E890057
:10455000610E810070382100808F50000500360008
:10456000001E22008040EB00014878000000EB00B4
:10457000600E890020AD210010407800E54F50000A
:1045800013003A00008C2000104078000004E00086
:104590000F003200C00E81000000E800C00E89004C
:1045A000C00E8100E10F5000090036000000EB0052
:1045B000C00E8900008C20008040EB00014878008C
:1045C000FA470200010000000000EB00D00E890055
:1045D00020AD210010407800E24F500011003A0059
:1045E000008C2000104078000004E0000D00320034
:1045F000C00E81000000E800C00E8900C00E8100DE
:10460000E10F5000070036000000EB00C00E8900EB
:10461000008C20008040EB0001487800F62D02005D
:10462000010000000081200010407800E94F500098
:104630000B003A00D00E81000000E800D00E890087
:10464000D10E810080382100808F50000400360098
:10465000B08D200090407800408F20000148780005
:104660000080FA00000006000000FA0084E0A900C3
:104670000080FA00000006000000FA0088A0A900EF
:10468000604080000000E800604088005008800022
:10469000D04188000A21EF000080FA0000000600E7
:1046A0000200FA008560A900301180008040780087
:1046B0008080200001487800B01C22008040EB0080
:1046C0000148780020AD2100104078000004E0008F
:1046D0000800320020AD210010407800E64F500065
:1046E0000400320020AD210010407800E84F500057
:1046F0008F013A00A01C2200104078000080FB00CF
:10470000E30F50003E003200E30F500007003C0072
:10471000E10F500026003200E10F50002E003C0057
:104720000000E0000A003200CA003700E50F500028
:104730005F003200E50F50003B003500E60F5000EF
:1047400077003200E70F5000B7003200C100370099
:104750008080200090407800E0B02100014878007F
:10476000A01C2200104078008040E800A01C22001D
:1047700001487800E0B021009040780050CAB300B2
:1047800080CF500003003200A01C22008040EB00CC
:1047900001487800201D22008040EB00014878008D
:1047A000908020008040EB0001487800A90037008D
:1047B0008080200090407800F0B02100014878000F
:1047C000A01C2200104078008040E800A01C2200BD
:1047D000014878009F0037008080200090407800DA
:1047E00000B1210001487800A01C22001040780090
:1047F0008040E800A01C22000148780095003700A6
:10480000808020009040780010B12100014878009D
:10481000A01C2200104078008040E800A01C22006C
:10482000014878008B00370080802000904078009D
:1048300020B121000148780010B12100904078009B
:10484000301D220001487800A01C22001040780092
:104850008040E800A01C220001487800301D2200A2
:104860009040780030C2B30080CF50000600360080
:10487000A01C22008040EB0001487800201D22008F
:104880008040EB0001487800301D22001040780085
:104890000004E0006C003A00A01C220010407800E8
:1048A0008040E800A01C2200014878006900370021
:1048B000201D2200104078000080FB008180200035
:1048C00091407800F2B02100000041004140980082
:1048D000201D2200104078008040E800201D2200AA
:1048E00001487800201D220090407800301D2200F1
:1048F0001040780080CF500055003A00201D220063
:104900008040EB0001487800A01C22001040780095
:104910008040E800A01C2200014878004D003700CC
:10492000808020009040780060B32100014878002A
:10493000F0B0210090407800101D2200014878005E
:1049400000B1210090407800101D22001040780036
:1049500080C04000101D22000148780010B12100E5
:1049600090407800101D22001040780080C0400068
:10497000101D22000148780020B1210090407800ED
:10498000101D22001040780080C04000101D220041
:10499000014878000040EB00004F78000A00370023
:1049A0001E80FB0064004000F1B02100E14078006F
:1049B000101D22001040780080C04000101D220011
:1049C000014878001E4FE800301D2200104078009A
:1049D0009E40780080CF5000F1FF390060B3210085
:1049E00090407800101D22001040780080CF5000C9
:1049F00004003200908020008040EB0001487800E5
:104A0000030037009080200011C0B30001487800F7
:104A1000A01C2200104078008040E800A01C22006A
:104A2000014878000B00370080802000904078001B
:104A300070B3210001487800A01C22008040EB00E8
:104A40000148780003003700000000000100370033
:104A500000000000E01C2200104078000080FB00F5
:104A6000E30F50005D003200E30F500007003C00F0
:104A7000E10F500027003200E10F50003E003C00E3
:104A80000000E0000A003200FD023700E50F500090
:104A900074003200E50F500061003500E60F500051
:104AA00081003200E70F500090003200F40237001E
:104AB000808020009040780040C7B30080CF500035
:104AC0000D003A00F01C2200904078008080200009
:104AD0001040780080C06800F01C22000148780077
:104AE000E01C2200104078008040E800E01C22001A
:104AF0000148780006003700F01C22008040EB00DF
:104B000001487800E01C22008040EB00014878005A
:104B1000860037008080200090407800F0C6B30007
:104B200080CF50000D003A00F01C22009040780029
:104B3000808020001040780080C06800F01C2200B7
:104B400001487800E01C2200104078008040E80016
:104B5000E01C22000148780006003700F01C22000B
:104B60008040EB0001487800E01C22008040EB0010
:104B7000014878006D003700808020009040780068
:104B800000C7B30080CF50000D003A00F01C220097
:104B900090407800808020001040780080C068003D
:104BA000F01C220001487800E01C22001040780030
:104BB0008040E800E01C2200014878000600370031
:104BC000F01C22008040EB0001487800E01C22002D
:104BD0008040EB00014878005400370080802000BE
:104BE00090407800208D200001487800F01C2200C1
:104BF00090407800808020001040780080C06800DD
:104C0000F01C220001487800E01C220010407800CF
:104C10008040E800E01C2200014878004300370093
:104C20008080200090407800308D2000014878007E
:104C3000F01C220090407800808020001040780016
:104C400080C06800F01C220001487800E01C2200AF
:104C5000104078008040E800E01C22000148780005
:104C6000320037008080200090407800408D200086
:104C700001487800F01C22009040780080802000DD
:104C80001040780080C06800F01C220001487800C5
:104C9000E01C2200104078008040E800E01C220068
:104CA0000148780021003700808020009040780083
:104CB000508D200001487800F01C220090407800C0
:104CC000808020001040780080C06800F01C220026
:104CD00001487800E01C2200104078008040E80085
:104CE000E01C22000148780010003700F01C220070
:104CF00090407800808020001040780080CF5000E5
:104D000003003A00008D200011C0B3000148780074
:104D1000E01C22008040EB0001487800F01C2200DB
:104D20008040EB000148780000000000540237008A
:104D300020AD210010407800E54F5000CB003A0034
:104D40008080200010407800EC4F500007003A00AF
:104D50009080200011C0B3000148780080802000BE
:104D60008040EB00014878008580A800E01C22000C
:104D7000104078000080FB00E30F5000600032001C
:104D8000E30F500007003C00E10F50002700320005
:104D9000E10F50003E003C000000E0000A0032003D
:104DA00037023700E50F500077003200E50F500062
:104DB00064003500E60F500084003200E70F500019
:104DC000940032002E02370080802000904078004E
:104DD00040C7B30080CF50000D003A00F01C220005
:104DE00090407800808020001040780080C06800EB
:104DF000F01C220001487800E01C220010407800DE
:104E00008040E800E01C2200014878001C023700C6
:104E1000F01C22008040EB0001487800E01C2200DA
:104E20008040EB00014878001502370080802000A8
:104E300090407800F0C6B30080CF50000D003A00DB
:104E4000F01C220090407800808020001040780004
:104E500080C06800F01C220001487800E01C22009D
:104E6000104078008040E800E01C220001487800F3
:104E700003023700F01C22008040EB00014878005C
:104E8000E01C22008040EB0001487800FC01370064
:104E9000808020009040780000C7B30080CF500091
:104EA00010003A00F01C2200904078008080200022
:104EB0001040780080C06800F01C22000148780093
:104EC000E01C2200104078008040E800E01C220036
:104ED00001487800A08C200011C0B3000148780080
:104EE000E7013700F01C22008040EB000148780009
:104EF000E01C22008040EB0001487800E001370010
:104F00008080200090407800208D200001487800AB
:104F1000F01C220090407800808020001040780033
:104F200080C06800F01C220001487800E01C2200CC
:104F3000104078008040E800E01C22000148780022
:104F4000CF0137008080200090407800308D200015
:104F500001487800F01C22009040780080802000FA
:104F60001040780080C06800F01C220001487800E2
:104F7000E01C2200104078008040E800E01C220085
:104F800001487800BE013700808020009040780002
:104F9000408D200001487800F01C220090407800ED
:104FA000808020001040780080C06800F01C220043
:104FB00001487800E01C2200104078008040E800A2
:104FC000E01C220001487800AD01370080802000FD
:104FD00090407800508D200001487800F01C22009D
:104FE00090407800808020001040780080C06800E9
:104FF000F01C220001487800E01C220010407800DC
:105000008040E800E01C2200014878000000000019
:105010009B013700F01C2200904078008080200027
:105020001040780080CF500006003A00008D20002C
:1050300011C0B30001487800008C200011C0B300FB
:1050400001487800E01C22008040EB000148780015
:10505000F01C22008040EB0001487800A08C20006A
:105060008040EB00014878008501370020AD210029
:1050700010407800E24F5000BE003A00A01C220011
:10508000104078000080FB00E20F50003F0032002B
:10509000E20F500005003C000000E0000A00320072
:1050A000E10F50002100320075013700E40F50007D
:1050B00065003200E40F500047003500E50F500056
:1050C0006C0032006E013700808020009040780034
:1050D00020B6210001487800A01C22001040780072
:1050E0008040E800A01C22000148780020B6210082
:1050F00010407800E44F400005003200A01C220060
:105100008040EB00014878000000EB00A00E890011
:10511000201D22008040EB00014878009080200094
:105120008040EB0001487800550137008080200066
:1051300010407800E540500030B62100014878006A
:10514000A01C2200104078008040E800A01C220033
:105150000148780030B621009040780030C2B3009A
:1051600080CF50003B013600A01C22008040EB00A5
:1051700001487800201D22008040EB0001487800A3
:105180000000EB00A00E89003D0137008080200068
:105190009040780040B6210001487800A01C220011
:1051A000104078008040E800A01C220001487800F0
:1051B00030B62100104078000004E00027013A00DA
:1051C000A01C2200104078008040E800A01C2200B3
:1051D000014878002A013700201D22001040780085
:1051E0000080FB00818020009140780032B62100D1
:1051F0000000410021409800201D2200104078004E
:105200008040E800201D22000148780030B62100CF
:1052100090407800201D22001040780080CF500080
:1052200010013A00201D22008040EB000148780068
:10523000A01C2200104078008040E800A01C220042
:10524000014878000E0137008080200090407800EF
:1052500080B8210001487800A01C2200104078008E
:105260008040E800A01C22000148780000000000F7
:1052700003013700808020009040780090B8210022
:105280000148780020B62100104078008040780066
:10529000A00E8100E04F020001000000A00E890076
:1052A00030B6210010407800654040008040780012
:1052B000A00E8100E04F020001000000A00E890056
:1052C00040B621001040780080407800A00E810098
:1052D000E04F020001000000A00E89000040EB003A
:1052E000004F78000A0037001E80FB000080E800B5
:1052F00031B621006140780080407800A00E810026
:10530000E04F020001000000A00E89001E4FE800DF
:1053100030B62100104078009E4F5000F2FF3E0052
:1053200080B82100104078008080FB0090B82100F8
:10533000104078000080FB004800DD000080400045
:1053400080007800A00E8100808F500003003A009A
:10535000008C200011C0B30001487800A01C22007E
:105360008040EB00014878000000EB00A00E8900AF
:10537000C300370020AD210010407800E14F5000FD
:10538000BF003A000000EB00600E8900A01C220064
:10539000104078000080FB00E20F50004B0032000C
:1053A000E20F500005003C000000E0000A0032005F
:1053B000E10F500029003200B1003700E40F500027
:1053C0006D003200E40F500051003500E50F500031
:1053D00089003200AA0037008080200090407800C9
:1053E00020BB210001487800808020009040780098
:1053F000101D220001487800A01C220010407800F7
:105400008040E800A01C22000148780020BB210059
:1054100090407800602122001040780080CF50003A
:105420000700320020BB2100104078000004E0009B
:1054300003003200A01C22008040EB0001487800ED
:10544000201D22008040EB00014878009080200061
:105450008040EB0001487800890037008080200000
:105460009040780030BB210001487800101D2200D8
:1054700090407800808020001040780080C040007C
:10548000101D220001487800A01C22001040780066
:105490008040E800A01C22000148780030BB2100B9
:1054A0009040780030C2B30080CF50006F003600CB
:1054B000A01C22008040EB0001487800201D220043
:1054C0008040EB00014878006D00370080802000AC
:1054D0009040780040BB210001487800101D220058
:1054E00090407800808020001040780080C040000C
:1054F000101D220001487800A01C220010407800F6
:105500008040E800A01C2200014878005C003700C1
:10551000808020009040780050BB21000148780036
:10552000101D2200904078008080200010407800FC
:1055300080C04000101D220001487800A01C2200FD
:10554000104078008040E800A01C2200014878004C
:1055500030BB2100104078000004E00045003A0014
:10556000A01C2200104078008040E800A01C22000F
:105570000148780042003700201D220010407800CA
:105580000080FB00818020009140780022BB210038
:105590000000410041409800101D2200904078001A
:1055A000808020001040780080C04000101D220044
:1055B00001487800201D2200104078008040E8005B
:1055C000201D22000148780030BB21009040780067
:1055D000201D22001040780080CF500027003A00A4
:1055E000A01C2200104078008040E800A01C22008F
:1055F0000148780022003700808020009040780029
:1056000090BD210001487800101D220090407800D4
:10561000808020001040780080C04000101D2200D3
:1056200001487800101D2200104078000004E000BE
:1056300003003A009080200011C0B30001487800B8
:10564000A01C22008040EB00014878000000000010
:105650000B003700000000000900370000000000C8
:1056600007003700000000000500370000000000C0
:1056700003003700000000000100370000000000B8
:105680000080FA00000006000000FA008580A900F2
:1056900020AD210010407800E14F5000040032009E
:1056A00020AD210010407800E24F500017003A0072
:1056B000C04580000000E00010003200001D220004
:1056C000104078000080FB001181200061407800CC
:1056D0000080FB0020118800C04580000000E90028
:1056E000C0458800001D2200104078008040E8007E
:1056F000001D2200014878000B003700001D220029
:105700008040EB00014878000700370020AD210001
:1057100010407800E54F500003003A00008C200054
:1057200011C0B300014878000080FA0000000600B4
:105730000000FA000080FA00000006000000FA00F5
:105740000080FA00000006000040DA000000FE00C1
:10575000811F78000100E00002003D0060001000A1
:10576000E08018000300E00002003D00600111002D
:10577000E0811900C10007004F00E00002003B007B
:1057800060001000E080180000000600839F6800A1
:105790000100E00002003D0060001000E080180001
:1057A0000300E00002003D0060011100E0811900EB
:1057B000A20007004F00E00002003B006000100064
:1057C000E0801800000006004F89DE0082017800AA
:1057D000AD00370003F0A200889FBE008A9FBE0084
:1057E0008C1F7800B8000700BF0033006450E10050
:1057F0004F0032006420E1005200320003826C004E
:1058000007003B000905D0000306D000820F5400BA
:105810000C065D00020039000200320089017800A8
:10582000030678008582550004003D000003FD005A
:105830008103FD008502EA008B854200840F72001F
:1058400002003B0060001000E08018006011B8000A
:105850000005EB007A28E1000A0039000600780014
:10586000C75DDD00F707B200878075002D003700A7
:10587000828171000A017800610560008180D10099
:105880000080D3008502E900F9FF3B0006044000D8
:105890008784480002003B0060041400E0841C0080
:1058A0000988A300070032008A817100828171009B
:1058B000610164008904D1000884D3008B05E800ED
:1058C000170037000978A30013003A000B00E0002E
:1058D000130034008B05E9000804440089844C005F
:1058E0000A4474000978A3000D003A000B00E000A0
:1058F000070034008B05E9000804440089844C004B
:1059000001003A000B0020000978A300F7FF3200E5
:105910000001EB0002003700828171000A0178006B
:10592000810007000CF0A70001F0A000770037000D
:105930006420E10002003A00838F6C00770033009E
:105940000801BE000200BE00700037000001BE006A
:105950009B0007000470A70003F0A1006509B100D7
:10596000160032000D0035006828E1000600350001
:10597000F0FF2F00F1FF27000300E00013003B00C1
:105980000100280000000500000040008180480060
:105990008502E900FCFF3A0008003700F88F42005A
:1059A00002003C008000EB00000005008100D100F7
:1059B0000080D3008502E800FCFF3A000300E0000D
:1059C00002003B0060001000E080180000000600AC
:1059D0000001BE007A0007000470A70003F0A100D8
:1059E00003F8A30013003A006509B100100032006B
:1059F000090035006928E100020035000100280097
:105A00000000050000004000818048008502E90098
:105A1000FCFF3A0000000600F88F42000500350048
:105A20008100D1000080D3008502E800FCFF3A002D
:105A3000000006008000EB00000005006022B800B6
:105A4000060220000000D0008180D2000482D20033
:105A50008582D2000000A0000202520083825A0018
:105A6000030031000202420083824A000000A100CC
:105A70000603E900F3FF3A0000000600EFFF07000D
:105A80000400BE0000000600881F780003047800B0
:105A90000300E00007003D0060001000E0801800F7
:105AA00060011900E081190002003B0001F02D00A7
:105AB000030037005700070008F0A70001F0A0001E
:105AC0004F047800000006000004BE003C00070000
:105AD0000003BE000405BE000200BE00380007003F
:105AE000844F7500000006000200BE006450E10013
:105AF000050036006420E100020036000968A300BA
:105B000001003A000800BE000160A0004F067800C6
:105B10004F05BE004F04BE0000000600F0FF2F003E
:105B2000F1FF2700F9FF3700810020006180550058
:105B30000B003D000B00200061FE2F000100E10082
:105B40001D00340082817100610164008904D1006C
:105B50000884D3000000E800FAFF3A00710020003A
:105B60006100640003007000020060000900320060
:105B700061044400E0844C000988A500050032005F
:105B80008B05E8006808E10002003A008904D100B2
:105B90000884D300F20F20000258E10005003D0008
:105BA000C75DDD00F907B200898075000800780044
:105BB000000006000BF827008B00780000000500AD
:105BC000C70ADE00F107B200F50FB200080032008C
:105BD000E1CF4200020032000170A0002400050065
:105BE000810F700001003200040805004400050028
:105BF000810F700002003A00140005008502E900E0
:105C00000000400081C04800FCFF3B000170A00084
:105C100024000500889FBE008A9FBE00008270009D
:105C20000402710004827100260032000004BE00EC
:105C30000200BE006011B8006B0920009502200030
:105C40000182CF000A0039000541B1000082CF0077
:105C5000070039000541B1000982CF000400390076
:105C60000541B1000882CF00010039000541B100B3
:105C700005425200120032000A003B00828171008E
:105C8000610164008100D1000080D3008984D300C9
:105C90000884D3008B05E8000442E800F7FF3A00CF
:105CA000070037000804440089844C0000004800C5
:105CB000818048008B05E9000442E900F9FF3A00C1
:105CC00099FF07004F05BE004F04BE00000006000C
:105CD0001000FA00500798006107980072079800BA
:105CE0000040EB00004F78000000EB001007980028
:105CF0005E009000EE009000E00F5000E08F580032
:105D000008003D005E009000EE0090006000100072
:105D1000E0801800500798006107980010C0B30099
:105D2000004F78005E009000EE009000A20020007E
:105D300003002000A82B020000000000604798002C
:105D40005E009000EE009000A20020000300200002
:105D5000C62B020000000000500798006107980061
:105D60001E009000FE00900000804000EE40900079
:105D70000143B000014878001E0090000000E800D8
:105D8000100798005E009000EE009000E00F5000B9
:105D9000E08F5800E3FF3C001E4078000004E00064
:105DA000080032001E009000FE00900000804000BD
:105DB000D1C2B300014878001E0090000000E80046
:105DC000100798001E009000FE0090000080400028
:105DD0008040EB00014878000000EB0020079800AD
:105DE0000000EB0020079800240037001E00900000
:105DF0008000E9002E009000808050002E0090006E
:105E0000808F5000220034002E009000FE00900091
:105E100000804000104078000000FB004007980020
:105E20002E009000FE009000008040009E00900038
:105E30000101E900AE009000810051007E01900058
:105E40008100410091407800014878001E009000D8
:105E50008000E9002E00900000805000FE009000BD
:105E600000804000CE00900081407800014878001A
:105E70002E0090000000E80020079800AE0090007F
:105E80001E009000808F5000D8FF350001003700C1
:105E9000000000000080FA00000006000400FA0084
:105EA000004F7800110798009E80FB004002200000
:105EB00000017800110009008280D8008000FD00F8
:105EC000004F78009E80FB00E0878700800178000B
:105ED000110009008300D800800078001E009000A7
:105EE000010878001E0090000081E8009E80FB0001
:105EF000E087870080017800110009008300D80046
:105F00008000FD0080007800A00F2F001040780076
:105F10000000FB000088B90080007800800F2F008F
:105F2000104078000000FB0000804000000978006D
:105F30001E009000640040009E0090008180E800F8
:105F400011017800A10F2F00914078008100FB0023
:105F5000810041008100E900010878000080FA001A
:105F6000000006001600FA0000579800110F980074
:105F7000220F98006A004700800078000E509000C1
:105F8000C6FF0700EE0090001E0890000080400051
:105F900020079800EE0090002E089000008040003E
:105FA000300798007E009000BE009000810F5000E6
:105FB0000100340001007800300798000000EB0079
:105FC000000F7800AE009000110798000E00370017
:105FD000DE009000C01220000088B9008000780028
:105FE0001E00900080804000408F20000080400014
:105FF000104090000080FB001E0F40001E0090002B
:106000000000E800100798009E0090003E009000FD
:10601000808F5000EEFF3400BE0090002E009000F4
:10602000008050000000E8009E0078000001780029
:10603000110009008200D800004F98000E4890001F
:106040000080FA00000006001400FA00604F98007B
:10605000010F9800120F9800680047008000780038
:106060006E4890008DFF0700DE0090000E08900043
:106070000080400020079800DE0090001E0890007D
:1060800000804000300798006E009000BE00900035
:10609000810F5000010034000100780030079800A3
:1060A0000000EB00000F7800AE0090001107980090
:1060B0001D0037001E007800CF80DE00E42B0200B8
:1060C000000000000002BE00CE009000C0122000C0
:1060D0000088B900800078001E0090008080400099
:1060E000408F200000804000104090000080FB00A6
:1060F000C200DD00E0C92E00008040001000BE009C
:106100000001BE000400BE00EC2B020000000000F5
:10611000A62C020000000000000F78001E00900076
:106120000000E800100798009E0090003E009000DC
:10613000808F5000DFFF3400BE0090002E009000E2
:10614000008050000000E8009E0078000001780008
:10615000110009008200D8000080FA00000006004B
:106160000400FA000000EB00000F78003700370051
:106170001E0078008000400040C1210000804000E7
:106180008080EB00010878001E007800800040004D
:10619000C0C52100008040008080EB00010878002D
:1061A0001E0078008000400040CA210000804000AE
:1061B0008080EB00010878001E007800800040001D
:1061C000C0CE2100008040008080EB0001087800F4
:1061D0001E0078008000400040D321000080400075
:1061E0008080EB00010878001E00780080004000ED
:1061F000C0D72100008040008080EB0001087800BB
:106200001E0078008000400040DC2100008040003B
:106210008080EB00010878001E00780080004000BC
:10622000C0E02100008040008080EB000108780081
:106230001E0078008000400040F1210000804000F6
:106240008080EB00010878001E0FE800300220007B
:106250009E007800808F5000C5FF34000000EB00E6
:10626000000F78002E0037000000EB0010079800A8
:10627000270037001E007800C200DD001E009000DD
:10628000008040008000400040E521000080400088
:106290008080EB00010878001E007800C200DD005D
:1062A0001E009000008040008000400040E8210077
:1062B000008040008080EB00010878001E0078001C
:1062C000C200DD001E009000008040008000400001
:1062D00040EB2100008040008080EB000108780046
:1062E0001E007800C200DD001E009000008040000B
:1062F0008000400040EE2100008040008080EB00E4
:10630000010878001E0090000000E80010079800C7
:106310001E009000E30F5000D6FF34001E0FE8006F
:106320001E007800E50F5000CFFF34000080FA0017
:10633000000006000200FA00881F7800004F780075
:106340009E80FB004002200000017800110009003F
:106350008280D8008000FD00004F78001E80FB0086
:106360008000400040C12100008040001000780003
:106370000000E00013003D001E84FB00A00F2F0072
:10638000104078008000FB00200020000001780011
:10639000110009008200D800004078000000FB00D6
:1063A000000178008000EB001E407800EDFE070041
:1063B0008080FB000801440040C121000000410032
:1063C000010878001E80FB008000400040C12100D1
:1063D00000804000100078004F0478000080FA0030
:1063E000000006000400FA00881F7800004F7800C3
:1063F0009E80FB004002200000017800110009008F
:106400008280D8008000FD00004F78001E80FB00D5
:1064100080004000C0C521000080400010007800CE
:106420000000E00017003D001E84FB00A00F2F00BD
:10643000104078000000FB0010079800A00F2F000C
:10644000104078000001FB0020002000800178004F
:10645000110009000301D800004078000000FB0093
:106460001E019000800078001E407800BDFE0700ED
:106470008080FB0008014400C0C5210000004100ED
:10648000010878001E80FB0080004000C0C521008C
:1064900000804000100078004F0478000080FA006F
:1064A000000006000200FA00889FBE00004F78003E
:1064B0009E80FB00400220000001780011000900CE
:1064C0008280D8008000FD00004F78001E80FB0015
:1064D0008000400040CA2100008040001000780089
:1064E0000000E00010003D001E84FB001E4078000C
:1064F00090FF0700800478001E407800B9FF070075
:106500008080440020002000000178001100090074
:106510008200D800800078000801440040CA2100B1
:1065200000004100010878001E80FB008000400050
:1065300040CA210000804000100078004F04BE00D7
:106540000080FA00000006000800FA0040479800AA
:10655000514798004E4090008080FB005E409000C4
:106560000080FB000080E900C208DD0000804000E0
:106570008000400040E521000080400010007800CD
:106580000000E00029003D000000EB00100798002B
:106590000000EB00000F78000C0037004E40900028
:1065A0006600B90000007800804078001E00780086
:1065B0000040780000C04000BAFF07009E00900035
:1065C00000804000100798001E0FE8005E40900019
:1065D0000080FB009E0F5000F0FF3C004E409000FA
:1065E0000081FB005E4090000080FB000080E9001D
:1065F00030079800DE4090008180FB009E019000F3
:1066000001027800110009008401D8008000FD001B
:106610004211DD00BE019000030041000001400076
:1066200040E5210000004100010878004E40900044
:106630008080FB005E4090000080FB000080E9004D
:10664000C208DD00008040008000400040E52100DD
:1066500000804000100078000080FA000000060072
:106660000200FA00881F7800004F78009E80FB002F
:106670004002200000017800110009008280D8004B
:106680008000FD00004F78001E80FB00800040006D
:10669000C0CE210000804000100078000000E00023
:1066A00012003D001E84FB00A00F2F001040780058
:1066B0008000FB002000200000017800110009008C
:1066C0008200D800004078000000FB000001780044
:1066D0008000EB001E4078005BFE070008014400CC
:1066E000C1CE210081004100800878001E80FB009F
:1066F00080004000C0CE21000080400010007800E3
:106700004F0478000080FA00000006000400FA0040
:10671000881F7800004F78009E80FB004002200018
:1067200000017800110009008280D8008000FD007F
:10673000004F78001E80FB008000400040D3210005
:1067400000804000100078000000E00016003D00CE
:106750001E84FB00A00F2F00104078000000FB00FB
:1067600010079800A00F2F00104078000001FB00D8
:106770002000200080017800110009000301D800EA
:10678000004078000000FB001E01900080007800AF
:106790001E4078002CFE07000801440041D3210070
:1067A00081004100800878001E80FB0080004000CE
:1067B00040D3210000804000100078004F04780092
:1067C0000080FA00000006000200FA00889FBE0068
:1067D000004F78009E80FB004002200000017800FE
:1067E000110009008280D8008000FD00004F780071
:1067F0001E80FB0080004000C0D7210000804000C8
:10680000100078000000E00010003D001E84FB0036
:106810001E40780092FF0700800478001E40780038
:10682000BAFF0700808044002000200000017800AB
:10683000110009008200D80080007800080144009F
:10684000C0D7210000004100010878001E80FB0035
:1068500080004000C0D72100008040001000780078
:106860004F04BE000080FA00000006000800FA0095
:1068700040479800514798004E4090008080FB00B0
:106880005E4090000080FB000080E900C208DD004F
:10689000008040008000400040E82100008040006F
:1068A000100078000000E00029003D000000EB002F
:1068B000100798000000EB00000F78000C00370074
:1068C0004E4090006600B9000000780080407800DB
:1068D0001E0078000040780000C04000BAFF0700AA
:1068E0009E00900000804000100798001E0FE800F6
:1068F0005E4090000080FB009E0F5000F0FF3C00C7
:106900004E4090000081FB005E4090000080FB0044
:106910000080E90030079800DE4090008180FB0095
:106920009E01900001027800110009008401D80046
:106930008000FD004211DD00BE0190000300410017
:106940000001400040E821000000410001087800FB
:106950004E4090008080FB005E4090000080FB0075
:106960000080E900C208DD00008040008000400097
:1069700040E8210000804000100078000080FA000C
:10698000000006000200FA00004F7800114798004E
:106990001E4090009E40780080CF500004003600DA
:1069A0009E4078001E40900000C05000020037005A
:1069B0001E4090001E4050000080FA0000000600BB
:1069C0000A00FA00004F98000E4890008080FB00FB
:1069D0004002200000017800110009008280D800E8
:1069E0008000FD00004F98000E4890000080FB00E2
:1069F0008000400040DC2100008040001000780052
:106A00000000E00047003D000000EB00000F7800B0
:106A10000E4890008080FB0060002000000178009C
:106A2000110009008280D800004078000080FB003F
:106A3000200798000E4890008080FB006000200036
:106A400000017800110009008280D8008000FD005C
:106A5000004078000080FB0030079800800F2F0076
:106A6000104078008000FB003E0090004500DD00F3
:106A700000804000100798001A0037001E009000A8
:106A80000001E900AE009000C01220000088B900AB
:106A90000000780082004000408F2000008040000D
:106AA00010419000AE009000C01220000088B90094
:106AB000800078001E00900080804000408F200001
:106AC000008040001040900082407800ADFF070039
:106AD0000080FB001E0F40001E0090000000E80038
:106AE00010079800800F2F00104078008000FB00F6
:106AF0003E0090000000E8004500DD00808040007E
:106B00001E009000808F5000DCFF3D000E4890007A
:106B10000080FB008000400040DC2100008040003D
:106B20001E0878000E4890000080FB0080004000A6
:106B300040DC210000804000100078000080FA0056
:106B4000000006000400FA00889FBE008A1F78003B
:106B500020479800314798002E4090008080FB002D
:106B60003E4090000080FB000080E900C208DD008C
:106B7000008040008000400040EB21000080400089
:106B8000100078000000E00033003D002E4090002F
:106B90008080FB003E4090000080FB000080E90008
:106BA000C208DD00008040008000400040EB210072
:106BB000008040008000EB00010878000000EB003E
:106BC000000F7800200037002E4090008084FB00EA
:106BD0003E4090000080FB000084E9002E409000C1
:106BE0008080FB003E4090000080FB000080E900B8
:106BF000C208DD00008040008000400040EB210022
:106C000000804000100578002E4090006600B9001A
:106C100000007800804078001E0078000040780076
:106C200000C0400066FF0700800045004248DD00CC
:106C3000080040000001400040EB2100000041003E
:106C4000010878001E0FE8003E4090000080FB0025
:106C50009E0F5000DCFF3C002E4090008080FB0027
:106C60003E4090000080FB000080E900C208DD008B
:106C7000008040008000400040EB21000080400088
:106C8000100078004F0578004F04BE000080FA0025
:106C9000000006000A00FA00881F7800004F9800E4
:106CA0000E4890008080FB00400220000001780028
:106CB000110009008280D8008000FD00004F98007C
:106CC0000E4890000080FB0080004000C0E02100E2
:106CD00000804000100078000000E00057003D00F8
:106CE0000000EB00000F78000E4890008080FB0051
:106CF0006000200000017800110009008280D800A7
:106D0000004078000080FB00200798000E489000AB
:106D10008080FB0060002000000178001100090065
:106D20008280D8008000FD00004078000080FB00D9
:106D300030079800800F2F00104078008000FB0083
:106D40003E0090004500DD000080400010079800E4
:106D50002A0037001E0090000001E900AE009000FC
:106D6000C01220000088B9000000780082004000B6
:106D7000408F200000804000104090000080FB0009
:106D8000C200DD00E0C92E00008040001000BE00FF
:106D9000E82C02000000000000447800AE009000E3
:106DA000C01220000088B900800078001E0090000A
:106DB00080804000408F2000008040001040900004
:106DC0000080FB00C200DD00E0C92E000080400012
:106DD0001000BE00E82C0200000000000040780017
:106DE00088407800E7FE07000080FB001E0F40008F
:106DF0001E0090000000E80010079800800F2F0090
:106E0000104078008000FB003E0090000000E80089
:106E10004500DD00808040001E009000808F500003
:106E2000CCFF3D000E4890000080FB008000400039
:106E3000C0E02100008040001E0878000E4890004D
:106E40000080FB0080004000C0E021000080400086
:106E5000100078004F0478000080FA00000006005F
:106E60000400FA00889FBE008A1F7800204798001F
:106E7000314798002E4090008080FB003E409000FB
:106E80000080FB000080E900C208DD0000804000B7
:106E90008000400040EE210000804000100078009B
:106EA0000000E00033003D002E4090008080FB0099
:106EB0003E4090000080FB000080E900C208DD0039
:106EC000008040008000400040EE21000080400033
:106ED0008000EB00010878000000EB00000F780054
:106EE000200037002E4090008084FB003E40900040
:106EF0000080FB000084E9002E4090008080FB00B1
:106F00003E4090000080FB000080E900C208DD00E8
:106F1000008040008000400040EE210000804000E2
:106F2000100578002E4090006600B900000078003F
:106F3000804078001E0078000040780000C04000CB
:106F400054FF0700800045004248DD000800400073
:106F50000001400040EE21000000410001087800DF
:106F60001E0FE8003E4090000080FB009E0F500086
:106F7000DCFF3C002E4090008080FB003E409000F3
:106F80000080FB000080E900C208DD0000804000B6
:106F90008000400040EE210000804000100078009A
:106FA0004F0578004F04BE000080FA000000060084
:106FB0001600FA00405798004E5090000080FB00E9
:106FC0008000400040F12100008040001000780067
:106FD000E10F40006C003A004E5090008080FB00B2
:106FE0006000200000017800110009008280D800B4
:106FF000004078000080FB00200798004E50900071
:107000008080FB0060002000000178001100090072
:107010008280D8008000FD00004078000080FB00E6
:1070200030079800F00F200070079800F00F200044
:10703000000F9800F00F2000100F9800800F2F0015
:10704000104078008000FB003E0090004500DD000D
:107050000080400040079800800F2F00104078000B
:107060008000FB003E0090000080E8004500DD004D
:1070700000804000100798003E009000E50F50008F
:1070800008003A00800F2F00104078008000FB00BD
:107090003E009000630040004500DD00008040009D
:1070A00010079800CE009000010F78002B003700E9
:1070B000AE009000C01220000088B90000007800E7
:1070C0009E004000408F2000008040001040900053
:1070D0008080FB007E009000808F50001E003D00ED
:1070E000AE009000C01220000088B90000007800B7
:1070F0009E004000408F2000008040001040900023
:107100000080FB0070079800FE0090000E089000C1
:10711000808F500010003D007E01900052079800C3
:107120000E08900070079800DE009000010F980094
:107130008E0890001E089000808F500006003D00D1
:107140007E019000620798000E089000700798007A
:10715000EE009000010F98001E0FE8001E00900046
:107160009E007800808F5000D1FF34004E50900078
:107170000080FB00FE0090000001400040F1210073
:1071800000004100010878004E5090000080FB0094
:107190008000400040F12100008040001000780095
:1071A0000080FA00000006000C00FA00008FBE000C
:1071B0002207980033079800440798005507980065
:1071C0002E009000BE0090001E01BE00800F5100F6
:1071D000818F590007003E002E019000BE019000F3
:1071E0004E009000DE009000800F5100818F59000A
:1071F000020036000040EB000100370010C0B30071
:107200000080FA00000006000600FA00000F780077
:1072100011079800220798001E0090009E00780039
:10722000808F500004003E009E0090002E009000D1
:10723000808F5000020036000040EB000100370054
:1072400010C0B3000080FA00000006001600FA002B
:10725000205798003157980042579800535798008C
:107260000040EB00204798000040EB0030479800BA
:107270000040EB00404798002E509000EC00470083
:1072800006FB0700EE00900031079800FE0090001A
:10729000410798008E08900051079800BE009000AA
:1072A000C01220000088B900800078004E009000D5
:1072B00080804000408F200000804000904090007F
:1072C00051479800CE009000010F78006100370010
:1072D0003E4090000004E0002F003200BE0090000D
:1072E000C01220000088B900000078009E00400015
:1072F000408F200000804000904090005E40900051
:1073000080CF50000C003900BE009000C012200059
:107310000088B900000078009E004000408F2000E7
:107320000080400090409000514798000040EB00E2
:10733000404798000C003700BE009000C0122000AB
:107340000088B900000078009E004000408F2000B7
:107350000080400090409000514798004E409000BF
:107360000040E80040479800CE4090005E509000FA
:1073700080CF5000360034002E4090000040E800DE
:10738000204798000040EB00304798000040EB0099
:10739000404798002E003700BE009000C012200029
:1073A0000088B900000078009E004000408F200057
:1073B00000804000904090005E40900080CF5000E0
:1073C0000C003E00BE009000C01220000088B900F2
:1073D000000078009E004000408F200000804000A8
:1073E00090409000514798000040EB0040479800C3
:1073F0000C003700BE009000C01220000088B900C9
:10740000000078009E004000408F20000080400077
:1074100090409000514798004E4090000040E80096
:1074200040479800CE4090005E50900080CF5000C2
:10743000070034002E4090000040E80020479800EC
:1074400010C0B300304798000040EB004047980060
:107450001E0FE8005E0090009E007800808F5000B4
:107460009BFF3500AE4090004E50900080CF500002
:1074700006003C00AE4090003E50900080CF50008F
:107480000200350010C0B300010037000040EB00DF
:107490000080FA00000006000400FA00881F78004F
:1074A000004F7800110798001E407800FDFB070090
:1074B000000478001E00900000407800F9FB0700EF
:1074C000800F54000200340010C0B30001003700E8
:1074D0000040EB004F0478000080FA000000060036
:1074E0000200FA00881F7800004F78001E407800E4
:1074F00090FB0700000478001E407800B9FB0700ED
:107500008000780010C0B300810F540001003C00DF
:107510000040EB004F0478000080FA0000000600F5
:107520000200FA00881F7800004F78001E407800A3
:1075300080FB0700000478001E407800A9FB0700CC
:107540008000780010C0B300810F540001003500A6
:107550000040EB004F0478000080FA0000000600B5
:107560000200FA00881F7800004F78001E40780063
:107570003BFC0700000478001E40780063FC070015
:107580008000780010C0B300810F540001003C005F
:107590000040EB004F0478000080FA000000060075
:1075A0000200FA00881F7800004F78001E40780023
:1075B0002BFC0700000478001E40780053FC0700F5
:1075C0008000780010C0B300810F54000100350026
:1075D0000040EB004F0478000080FA000000060035
:1075E0001000FA00889FBE0020079800310798001D
:1075F000420798005307980064079800654F980069
:10760000BE0090006E009000808F50001E0036007B
:107610003E009000CF80DE00008FBE005E00900034
:107620006104B8006E4890000080FB008000EB0011
:107630001E0178000191B900020178009E019000BE
:10764000009AB90084017800030141009E0178008E
:107650000018B80001014100820078002E0190005E
:10766000CF91DE001E2D0200000000004E019000B0
:107670006113B8000802BE000001BE000600BE0093
:10768000C9FE07000D0037006E4890008080FB00A7
:107690003E0090000088B900800078002E00900025
:1076A00000017800110009008200D8005E019000FE
:1076B000800078004E009000D3FE07004F04BE000B
:1076C0000080FA00000006000800FA00881F780019
:1076D0002047980021079800320798002E4090001C
:1076E0000040E80013FB0700000F78001E00780040
:1076F0000000E00002003A000040EB000C00370000
:10770000BE0090002E009000008440002E409000AB
:1077100008FB070045C6B3007414200088017800F8
:107720003E019000800078001E007800ACFF07004A
:107730004F0478000080FA00000006000A00FA00FA
:10774000881F78004047980031079800420798004A
:107750004E4090000040E80022FB0700CF80DE0092
:10776000008FBE001E00BE00E00F5000E08F5800EA
:1077700002003A000040EB000C003700CE00900001
:107780003E009000008440004E40900015FB070032
:10779000800078001E00780045C6B30074142000F5
:1077A000880178004E0190008DFF07004F0478009B
:1077B0000080FA00000006000A00FA00881F780026
:1077C0004047980031079800420798004E409000CB
:1077D0000040E80033FB0700CF80DE00008FBE00D2
:1077E0001E00BE00E00F5000E08F580002003A007B
:1077F0000040EB000C003700CE0090003E009000EF
:10780000008440004E40900026FB07008000780076
:107810001E00780045C6B30074142000880178006B
:107820004E0190006EFF07004F0478000080FA00C0
:10783000000006000E00FA00881F7800004F980034
:1078400051079800620798000E4890008080FB0066
:10785000E087870000017800110009008200D8004D
:10786000100798000040EB00004F78001E009000C9
:10787000E30F500006003A00E08787008040780060
:107880000E48900000C04000004F78003B003700D9
:107890001E009000E40F500006003A00E0878700C9
:1078A000004078008E48900000C05000004F7800E3
:1078B000320037001E0090000000E00008003A008F
:1078C000E08787000040780000404000804078005A
:1078D0000E48900000C04000004F7800270037009D
:1078E0001E009000E20F50000A003A00E087870077
:1078F00080407800E00F20000088B9000000780088
:10790000804078000E48900000C04000004F780092
:107910001A0037001E009000E10F500008003A00E6
:10792000E087870080407800200020008008DD008C
:107930000E48900000C04000004F78000F00370054
:107940001E009000E50F50000A003A00E087870013
:1079500080407800C00F20000088B9000000780047
:10796000804078000E48900000C04000004F780032
:10797000020037000040EB00180037001E4078007E
:10798000C8FA0700CF80DE00200798003107980072
:107990002E009000BE009000E00F5000E08F5800D5
:1079A00002003A000040EB000C003700EE009000AF
:1079B0005E009000008440000E489000B9FA070075
:1079C000800078002E00900045C6B300741420009B
:1079D000880178006E01900001FF07004F047800D5
:1079E0000080FA00000006000A00FA00881F7800F4
:1079F0004047980031079800420798004E40900099
:107A00008080FB00E08787000001780011000900FA
:107A10008200D8000040780051C0B300CAFA0700C5
:107A2000CF80DE00008FBE001E00BE00E00F5000C1
:107A3000E08F580002003A000040EB000C003700D5
:107A4000CE0090003E009000008440004E40900028
:107A500094FA0700800078001E00780045C6B30045
:107A600074142000880178004E019000DCFE0700AD
:107A70004F0478000080FA00000006000E00FA00B3
:107A8000881F7800004F98005107980062079800FF
:107A90000E4890008080FB00E0878700000178009E
:107AA000110009008200D8008000FD001007980036
:107AB0001E0090000000E000030032001E00900055
:107AC000E10F500004003A000E489000644040006E
:107AD000004F78000C0037001E009000E40F5000AB
:107AE000030032001E009000E50F500004003A0031
:107AF0000E48900064405000004F780002003700AC
:107B00000040EB00180037001E40780065FA0700BF
:107B1000CF80DE0020079800310798002E009000EB
:107B2000BE009000E00F5000E08F580002003A00C5
:107B30000040EB000C003700EE0090005E0090006B
:107B4000008440000E48900056FA0700800078003C
:107B50002E00900045C6B300741420008801780000
:107B60006E0190009EFE07004F0478000080FA002E
:107B7000000006002200FA00405F9800710F980094
:107B8000021798004E58900046FA0700CF80DE009A
:107B900010079800210798001E009000AE0090008A
:107BA000E00F5000E08F580002003A000040EB0068
:107BB000700037004E5890000004E00003003A00C7
:107BC00030022000000F7800030037004E5890006C
:107BD0000080FB00000FE9001E00780000407800E4
:107BE00030FA0700CF80DE00300798004107980088
:107BF0004E5890000040E8002AFA0700CF80DE00CF
:107C00005007980061079800CE0090005E00900039
:107C10000088B90000017800EE0090003E0090005E
:107C20000088B9000000780000014100BE0090000B
:107C30005E0090000008B800010141008200780059
:107C4000420620000289B900020178006002B900F2
:107C50008401780003014100430620000302B800BC
:107C60000501410082027800AE0090001E009000E5
:107C70000088B90000017800AE0090001E0090005E
:107C80000088B90000007800000141009E009000CB
:107C90001E0090000008B800010141008200780039
:107CA0000001BE000400BE001E2D02000000000006
:107CB00070079800010F98008E1090007E089000C9
:107CC00000804000100F98000E1090006101B80075
:107CD0000E1090008000EB00009AB90004027800BA
:107CE000028BB90086027800050242000010B8003D
:107CF00001024200840078004206200003002000B8
:107D00001E2D020000000000200F9800310F980087
:107D10001E0890006101B9001E089000CF80DE00AF
:107D2000009AB90004027800028BB900860278003C
:107D3000050242000010B8000102420084007800F1
:107D400042062000030020001E2D0200000000005B
:107D5000400F9800510F98004E0A9000DE0A9000E4
:107D60007E0190008E0990002E089000BE089000C1
:107D70000DFD07000080FA00000006002200FA0056
:107D8000405F9800710F9800021798004E589000BD
:107D90008DFA0700CF80DE001007980021079800B9
:107DA0001E009000AE009000E00F5000E08F5800E1
:107DB00002003A000040EB00700037004E5890007F
:107DC0000004E00003003A0030022000000F7800B9
:107DD000030037004E5890000080FB00000FE900C0
:107DE0001E0078000040780077FA0700CF80DE00A0
:107DF00030079800410798004E5890000040E80076
:107E000071FA0700CF80DE005007980061079800E4
:107E1000CE0090005E0090000088B900000178005C
:107E2000EE0090003E0090000088B900000078004D
:107E300000014100BE0090005E0090000008B80004
:107E40000101410082007800420620000289B90049
:107E5000020178006002B90084017800030141004A
:107E6000430620000302B8000501410082027800A9
:107E7000AE0090001E0090000088B900000178005C
:107E8000AE0090001E0090000088B900000078004D
:107E9000000141009E0090001E0090000008B80004
:107EA00001014100820078000001BE000400BE0014
:107EB0001E2D02000000000070079800010F9800BE
:107EC0008E1090007E08900000804000100F9800F7
:107ED0000E1090006101B8000E1090008000EB00C1
:107EE000009AB90004027800028BB900860278007B
:107EF000050242000010B800010242008400780030
:107F000042062000030020001E2D02000000000099
:107F1000200F9800310F98001E0890006101B900F1
:107F20001E089000CF80DE00009AB900040278009D
:107F3000028BB90086027800050242000010B800EA
:107F40000102420084007800420620000300200065
:107F50001E2D020000000000400F9800510F9800F5
:107F60004E0A9000DE0A90007E0190008E0990007B
:107F70002E089000BE0890008BFC07000080FA00DD
:107F8000000006000E00FA00881F7800004F9800DD
:107F900051079800620798000E4890008080FB000F
:107FA000E087870000017800110009008200D800F6
:107FB000100798000040EB00004F78001E00900072
:107FC000E30F500006003A00E08787008040780009
:107FD0000E48900000C04000004F78003B00370082
:107FE0001E009000E40F500006003A00E087870072
:107FF000004078008E48900000C05000004F78008C
:10800000320037001E0090000000E00008003A0037
:10801000E087870000407800004040008040780002
:108020000E48900000C04000004F78002700370045
:108030001E009000E20F50000A003A00E08787001F
:1080400080407800E00F20000088B9000000780030
:10805000804078000E48900000C04000004F78003B
:108060001A0037001E009000E10F500008003A008F
:10807000E087870080407800200020008008DD0035
:108080000E48900000C04000004F78000F003700FD
:108090001E009000E50F50000A003A00E0878700BC
:1080A00080407800C00F20000088B90000007800F0
:1080B000804078000E48900000C04000004F7800DB
:1080C000020037000040EB00180037001E40780027
:1080D00098F80700CF80DE0020079800310798004D
:1080E0002E009000BE009000E00F5000E08F58007E
:1080F00002003A000040EB000C003700EE00900058
:108100005E009000008440000E48900089F807004F
:10811000800078002E00900045C6B3007414200043
:10812000880178006E0190002DFD07004F04780053
:108130000080FA00000006000A00FA00881F78009C
:108140004047980031079800420798004E40900041
:108150008080FB00E08787000001780011000900A3
:108160008200D8000040780051C0B300F6F8070044
:10817000CF80DE00008FBE001E00BE00E00F50006A
:10818000E08F580002003A000040EB000C0037007E
:10819000CE0090003E009000008440004E409000D1
:1081A00064F80700800078001E00780045C6B30020
:1081B00074142000880178004E01900008FD07002B
:1081C0004F0478000080FA00000006000E00FA005C
:1081D000881F7800004F98005107980062079800A8
:1081E0000E4890008080FB00E08787000001780047
:1081F000110009008200D8008000FD0010079800DF
:108200001E0090000000E000030032001E009000FD
:10821000E10F500004003A000E4890006440400016
:10822000004F78000C0037001E009000E40F500053
:10823000030032001E009000E50F500004003A00D9
:108240000E48900064405000004F78000200370054
:108250000040EB00180037001E40780035F807009A
:10826000CF80DE0020079800310798002E00900094
:10827000BE009000E00F5000E08F580002003A006E
:108280000040EB000C003700EE0090005E00900014
:10829000008440000E48900026F807008000780017
:1082A0002E00900045C6B3007414200088017800A9
:1082B0006E019000CAFC07004F0478000080FA00AD
:1082C000000006002200FA00405F9800710F98003D
:1082D000021798004E58900016F80700CF80DE0075
:1082E00010079800210798001E009000AE00900033
:1082F000E00F5000E08F580002003A000040EB0011
:10830000700037004E5890000004E00003003A006F
:1083100030022000000F7800030037004E58900014
:108320000080FB00000FE9001E007800004078008C
:1083300000F80700CF80DE00300798004107980062
:108340004E5890000040E800FAF70700CF80DE00AA
:108350005007980061079800CE0090005E009000E2
:108360000088B90000017800EE0090003E00900007
:108370000088B9000000780000014100BE009000B4
:108380005E0090000008B800010141008200780002
:10839000420620000289B900020178006002B9009B
:1083A0008401780003014100430620000302B80065
:1083B0000501410082027800AE0090001E0090008E
:1083C0000088B90000017800AE0090001E00900007
:1083D0000088B90000007800000141009E00900074
:1083E0001E0090000008B8000101410082007800E2
:1083F0000001BE000400BE001E2D020000000000AF
:1084000070079800010F98008E1090007E08900071
:1084100000804000100F98000E1090006101B8001D
:108420000E1090008000EB00009AB9000402780062
:10843000028BB90086027800050242000010B800E5
:108440000102420084007800420620000300200060
:108450001E2D020000000000200F9800310F980030
:108460001E0890006101B9001E089000CF80DE0058
:10847000009AB90004027800028BB90086027800E5
:10848000050242000010B80001024200840078009A
:1084900042062000030020001E2D02000000000004
:1084A000400F9800510F98004E0A9000DE0A90008D
:1084B0007E0190008E0990002E089000BE0890006A
:1084C00039FB07000080FA00000006002200FA00D5
:1084D000405F9800710F9800021798004E58900066
:1084E0005FF80700CF80DE00100798002107980092
:1084F0001E009000AE009000E00F5000E08F58008A
:1085000002003A000040EB00700037004E58900027
:108510000004E00003003A0030022000000F780061
:10852000030037004E5890000080FB00000FE90068
:108530001E0078000040780049F80700CF80DE0078
:1085400030079800410798004E5890000040E8001E
:1085500043F80700CF80DE005007980061079800BD
:10856000CE0090005E0090000088B9000001780005
:10857000EE0090003E0090000088B90000007800F6
:1085800000014100BE0090005E0090000008B800AD
:108590000101410082007800420620000289B900F2
:1085A000020178006002B9008401780003014100F3
:1085B000430620000302B800050141008202780052
:1085C000AE0090001E0090000088B9000001780005
:1085D000AE0090001E0090000088B90000007800F6
:1085E000000141009E0090001E0090000008B800AD
:1085F00001014100820078000001BE000400BE00BD
:108600001E2D02000000000070079800010F980066
:108610008E1090007E08900000804000100F98009F
:108620000E1090006101B8000E1090008000EB0069
:10863000009AB90004027800028BB9008602780023
:10864000050242000010B8000102420084007800D8
:1086500042062000030020001E2D02000000000042
:10866000200F9800310F98001E0890006101B9009A
:108670001E089000CF80DE00009AB9000402780046
:10868000028BB90086027800050242000010B80093
:10869000010242008400780042062000030020000E
:1086A0001E2D020000000000400F9800510F98009E
:1086B0004E0A9000DE0A90007E0190008E09900024
:1086C0002E089000BE089000B7FA07000080FA005C
:1086D000000006000E00FA00881F7800004F980086
:1086E00051079800620798000E4890008080FB00B8
:1086F000E087870000017800110009008200D8009F
:10870000100798000040EB00004F78001E0090001A
:10871000E30F500006003A00E087870080407800B1
:108720000E48900000C04000004F78003B0037002A
:108730001E009000E40F500006003A00E08787001A
:10874000004078008E48900000C05000004F780034
:10875000320037001E0090000000E00008003A00E0
:10876000E0878700004078000040400080407800AB
:108770000E48900000C04000004F780027003700EE
:108780001E009000E20F50000A003A00E0878700C8
:1087900080407800E00F20000088B90000007800D9
:1087A000804078000E48900000C04000004F7800E4
:1087B0001A0037001E009000E10F500008003A0038
:1087C000E087870080407800200020008008DD00DE
:1087D0000E48900000C04000004F78000F003700A6
:1087E0001E009000E50F50000A003A00E087870065
:1087F00080407800C00F20000088B9000000780099
:10880000804078000E48900000C04000004F780083
:10881000020037000040EB00180037001E407800CF
:10882000F0F60700CF80DE0020079800310798009F
:108830002E009000BE009000E00F5000E08F580026
:1088400002003A000040EB000C003700EE00900000
:108850005E009000008440000E489000E1F60700A2
:10886000800078002E00900045C6B30074142000EC
:10887000880178006E01900059FB07004F047800D2
:108880000080FA00000006000A00FA00881F780045
:108890004047980031079800420798004E409000EA
:1088A0008080FB00E087870000017800110009004C
:1088B0008200D8000040780051C0B30022F70700C2
:1088C000CF80DE00008FBE001E00BE00E00F500013
:1088D000E08F580002003A000040EB000C00370027
:1088E000CE0090003E009000008440004E4090007A
:1088F000BCF60700800078001E00780045C6B30073
:1089000074142000880178004E01900034FB0700A9
:108910004F0478000080FA00000006000E00FA0004
:10892000881F7800004F9800510798006207980050
:108930000E4890008080FB00E087870000017800EF
:10894000110009008200D8008000FD001007980087
:108950001E0090000000E000030032001E009000A6
:10896000E10F500004003A000E48900064404000BF
:10897000004F78000C0037001E009000E40F5000FC
:10898000030032001E009000E50F500004003A0082
:108990000E48900064405000004F780002003700FD
:1089A0000040EB00180037001E4078008DF60700ED
:1089B000CF80DE0020079800310798002E0090003D
:1089C000BE009000E00F5000E08F580002003A0017
:1089D0000040EB000C003700EE0090005E009000BD
:1089E000008440000E4890007EF60700800078006A
:1089F0002E00900045C6B300741420008801780052
:108A00006E019000F6FA07004F0478000080FA002B
:108A1000000006002200FA00405F9800710F9800E5
:108A2000021798004E5890006EF60700CF80DE00C7
:108A300010079800210798001E009000AE009000DB
:108A4000E00F5000E08F580002003A000040EB00B9
:108A5000700037004E5890000004E00003003A0018
:108A600030022000000F7800030037004E589000BD
:108A70000080FB00000FE9001E0078000040780035
:108A800058F60700CF80DE003007980041079800B5
:108A90004E5890000040E80052F60700CF80DE00FC
:108AA0005007980061079800CE0090005E0090008B
:108AB0000088B90000017800EE0090003E009000B0
:108AC0000088B9000000780000014100BE0090005D
:108AD0005E0090000008B8000101410082007800AB
:108AE000420620000289B900020178006002B90044
:108AF0008401780003014100430620000302B8000E
:108B00000501410082027800AE0090001E00900036
:108B10000088B90000017800AE0090001E009000AF
:108B20000088B90000007800000141009E0090001C
:108B30001E0090000008B80001014100820078008A
:108B40000001BE000400BE001E2D02000000000057
:108B500070079800010F98008E1090007E0890001A
:108B600000804000100F98000E1090006101B800C6
:108B70000E1090008000EB00009AB900040278000B
:108B8000028BB90086027800050242000010B8008E
:108B90000102420084007800420620000300200009
:108BA0001E2D020000000000200F9800310F9800D9
:108BB0001E0890006101B9001E089000CF80DE0001
:108BC000009AB90004027800028BB900860278008E
:108BD000050242000010B800010242008400780043
:108BE00042062000030020001E2D020000000000AD
:108BF000400F9800510F98004E0A9000DE0A900036
:108C00007E0190008E0990002E089000BE08900012
:108C100065F907000080FA00000006002200FA0053
:108C2000405F9800710F9800021798004E5890000E
:108C3000B6F60700CF80DE001007980021079800E5
:108C40001E009000AE009000E00F5000E08F580032
:108C500002003A000040EB00700037004E589000D0
:108C60000004E00003003A0030022000000F78000A
:108C7000030037004E5890000080FB00000FE90011
:108C80001E00780000407800A0F60700CF80DE00CC
:108C900030079800410798004E5890000040E800C7
:108CA0009AF60700CF80DE00500798006107980011
:108CB000CE0090005E0090000088B90000017800AE
:108CC000EE0090003E0090000088B900000078009F
:108CD00000014100BE0090005E0090000008B80056
:108CE0000101410082007800420620000289B9009B
:108CF000020178006002B90084017800030141009C
:108D0000430620000302B8000501410082027800FA
:108D1000AE0090001E0090000088B90000017800AD
:108D2000AE0090001E0090000088B900000078009E
:108D3000000141009E0090001E0090000008B80055
:108D400001014100820078000001BE000400BE0065
:108D50001E2D02000000000070079800010F98000F
:108D60008E1090007E08900000804000100F980048
:108D70000E1090006101B8000E1090008000EB0012
:108D8000009AB90004027800028BB90086027800CC
:108D9000050242000010B800010242008400780081
:108DA00042062000030020001E2D020000000000EB
:108DB000200F9800310F98001E0890006101B90043
:108DC0001E089000CF80DE00009AB90004027800EF
:108DD000028BB90086027800050242000010B8003C
:108DE00001024200840078004206200003002000B7
:108DF0001E2D020000000000400F9800510F980047
:108E00004E0A9000DE0A90007E0190008E099000CC
:108E10002E089000BE089000E3F807000080FA00DA
:108E2000000006000A00FA00881F780040479800FA
:108E300031079800420798004E4090000040E8003B
:108E400007F60700CF80DE00008FBE001E00BE00C8
:108E5000E00F5000E08F580002003A000040EB00A5
:108E60000C003700CE0090003E00900000844000CF
:108E70004E409000FAF50700800078001E00780050
:108E800045C6B30074142000880178004E0190009C
:108E9000D3F907004F0478000080FA0000000600B4
:108EA0000A00FA00881F78004047980031079800B0
:108EB000420798004E4090000040E80013F607007B
:108EC000CF80DE00008FBE001E00BE00E00F50000D
:108ED000E08F580002003A000040EB000C00370021
:108EE000CE0090003E009000008440004E40900074
:108EF00006F60700800078001E00780045C6B30023
:108F000074142000880178004E019000B4F9070025
:108F10004F0478000080FA00000006000A00FA0002
:108F2000881F780040479800310798004207980052
:108F30004E4090000040E80023F60700CF80DE009E
:108F4000008FBE001E00BE00E00F5000E08F5800F2
:108F500002003A000040EB000C003700CE00900009
:108F60003E009000008440004E40900016F607003E
:108F7000800078001E00780045C6B30074142000FD
:108F8000880178004E01900095F907004F047800A1
:108F90000080FA00000006000E00FA00881F78002A
:108FA000004F980051079800620798000E48900003
:108FB0008080FB00E0878700000178001100090035
:108FC0008200D800100798000040EB00004F7800A6
:108FD0001E009000E30F500006003A00E087870073
:108FE000804078000E48900000C04000004F78009C
:108FF0003B0037001E009000E40F500006003A00CE
:10900000E0878700004078008E48900000C0500044
:10901000004F7800320037001E0090000000E00092
:1090200008003A00E08787000040780000404000D8
:10903000804078000E48900000C04000004F78004B
:10904000270037001E009000E20F50000A003A008F
:10905000E087870080407800E00F20000088B9009A
:1090600000007800804078000E48900000C040006A
:10907000004F78001A0037001E009000E10F5000EA
:1090800008003A00E0878700804078002000200038
:109090008008DD000E48900000C04000004F7800BE
:1090A0000F0037001E009000E50F50000A003A0044
:1090B000E087870080407800C00F20000088B9005A
:1090C00000007800804078000E48900000C040000A
:1090D000004F7800020037000040EB001800370016
:1090E0001E407800B8F50700CF80DE00200798000A
:1090F000310798002E009000BE009000E00F500055
:10910000E08F580002003A000040EB000C003700EE
:10911000EE0090005E009000008440000E48900039
:10912000A9F50700800078002E00900045C6B30026
:1091300074142000880178006E01900028F907005F
:109140004F0478000080FA00000006000A00FA00D0
:10915000881F780040479800310798004207980020
:109160004E4090008080FB00E0878700000178007F
:10917000110009008200D8000040780051C0B300FF
:10918000BAF50700CF80DE00008FBE001E00BE00D3
:10919000E00F5000E08F580002003A000040EB0062
:1091A0000C003700CE0090003E009000008440008C
:1091B0004E40900084F50700800078001E00780083
:1091C00045C6B30074142000880178004E01900059
:1091D00003F907004F0478000080FA000000060041
:1091E0000E00FA00881F7800004F98005107980081
:1091F000620798000E4890008080FB00E08787009F
:1092000000017800110009008200D8008000FD00F4
:10921000100798001E0090000000E00003003200DC
:109220001E009000E10F500004003A000E4890002C
:1092300064404000004F78000C0037001E00900092
:10924000E40F5000030032001E009000E50F5000B4
:1092500004003A000E48900064405000004F78002F
:10926000020037000040EB00180037001E40780075
:1092700055F50700CF80DE002007980031079800E1
:109280002E009000BE009000E00F5000E08F5800CC
:1092900002003A000040EB000C003700EE009000A6
:1092A0005E009000008440000E48900046F50700E4
:1092B000800078002E00900045C6B3007414200092
:1092C000880178006E019000C5F807004F0478000F
:1092D0000080FA00000006000A00FA00881F7800EB
:1092E0004047980031079800420798004E40900090
:1092F0008080FB004002200000017800110009007E
:109300008280D8008000FD00404798004E409000C9
:109310000040E800AAF50700CF80DE00008FBE0005
:109320001E00BE00E00F5000E08F580002003A001F
:109330000040EB000C003700CE0090003E00900093
:10934000008440004E4090009DF5070080007800AA
:109350001E00780045C6B300741420008801780010
:109360004E0190009EF807004F0478000080FA003C
:10937000000006000E00FA00881F7800004F9800D9
:1093800051079800620798000E4890008080FB000B
:109390004002200000017800110009008280D800FE
:1093A0008000FD00004F98000E4890008080FB0078
:1093B000E087870000017800110009008200D800D2
:1093C000100798000040EB00004F78001E0090004E
:1093D000E30F500006003A00E087870080407800E5
:1093E0000E48900000C04000004F78003B0037005E
:1093F0001E009000E40F500006003A00E08787004E
:10940000004078008E48900000C05000004F780067
:10941000320037001E0090000000E00008003A0013
:10942000E0878700004078000040400080407800DE
:109430000E48900000C04000004F78002700370021
:109440001E009000E20F50000A003A00E0878700FB
:1094500080407800E00F20000088B900000078000C
:10946000804078000E48900000C04000004F780017
:109470001A0037001E009000E10F500008003A006B
:10948000E087870080407800200020008008DD0011
:109490000E48900000C04000004F78000F003700D9
:1094A0001E009000E50F50000A003A00E087870098
:1094B00080407800C00F20000088B90000007800CC
:1094C000804078000E48900000C04000004F7800B7
:1094D000020037000040EB00180037001E40780003
:1094E00037F50700CF80DE0020079800310798008D
:1094F0002E009000BE009000E00F5000E08F58005A
:1095000002003A000040EB000C003700EE00900033
:109510005E009000008440000E48900028F507008F
:10952000800078002E00900045C6B300741420001F
:10953000880178006E01900029F807004F04780038
:109540000080FA00000006000A00FA00881F780078
:109550004047980031079800420798004E4090001D
:109560008080FB004002200000017800110009000B
:109570008280D8008000FD00404798004E40900057
:109580008080FB00E087870000017800110009005F
:109590008200D8000040780041C0B30069F50700A0
:1095A000CF80DE00008FBE001E00BE00E00F500026
:1095B000E08F580002003A000040EB000C0037003A
:1095C000CE0090003E009000008440004E4090008D
:1095D000FBF40700800078001E00780095C1B300FE
:1095E00044512000880178004E019000FCF70700EC
:1095F0004F0478000080FA00000006000E00FA0018
:10960000881F7800004F9800510798006207980063
:109610000E4890008080FB0040022000000178008E
:10962000110009008280D8008000FD00004F9800E2
:109630000E4890008080FB00E087870000017800E2
:10964000110009008200D8008000FD00100798007A
:109650001E0090000000E000030032001E00900099
:10966000E10F500004003A000E48900064404000B2
:10967000004F78000C0037001E009000E40F5000EF
:10968000030032001E009000E50F500004003A0075
:109690000E48900064405000004F780002003700F0
:1096A0000040EB00180037001E407800C4F40700AB
:1096B000CF80DE0020079800310798002E00900030
:1096C000BE009000E00F5000E08F580002003A000A
:1096D0000040EB000C003700EE0090005E009000B0
:1096E000008440000E489000B5F407008000780028
:1096F0002E00900045C6B300741420008801780045
:109700006E019000B6F707004F0478000080FA0061
:10971000000006000A00FA00881F78004047980001
:1097200031079800420798004E4090008080FB006F
:109730004002200000017800110009008280D8005A
:109740008000FD00404798004E4090000040E80037
:1097500050F50700CF80DE00008FBE001E00BE0067
:10976000E00F5000E08F580002003A000040EB008C
:109770000C003700CE0090003E00900000844000B6
:109780004E40900043F50700800078001E007800EE
:1097900045C6B30074142000880178004E01900083
:1097A0008FF707004F0478000080FA0000000600E1
:1097B0000E00FA00881F7800004F980051079800AB
:1097C000620798000E4890008080FB004002200055
:1097D00000017800110009008280D8008000FD009F
